# pfam_scan.pl,  run at Wed Jul 26 21:24:20 2023
#
# Copyright (c) 2009 Genome Research Ltd
# Freely distributed under the GNU 
# General Public License
#
# Authors: Jaina Mistry (jaina@ebi.ac.uk), 
#          Rob Finn (rdf@ebi.ac.uk)
#
# This is free software; you can redistribute it and/or modify it under
# the terms of the GNU General Public License as published by the Free Software
# Foundation; either version 2 of the License, or (at your option) any later version.
# This program is distributed in the hope that it will be useful, but WITHOUT
# ANY WARRANTY; without even the implied warranty of MERCHANTABILITY or FITNESS
# FOR A PARTICULAR PURPOSE. See the GNU General Public License for more
# details.
#
# You should have received a copy of the GNU General Public License along with
# this program. If not, see <http://www.gnu.org/licenses/>. 
# = = = = = = = = = = = = = = = = = = = = = = = = = = = = = = = = = = = = = = = =
#      query sequence file: /data/user/efjones/230227_EJ_MouseBrainIsoDiv/data/switchlist_fasta/region_region_AA.fasta
#        searching against: /PfamScan/PfamFiles/Pfam-A.hmm, with cut off --cut_ga
#    resolve clan overlaps: on
#     predict active sites: off
# = = = = = = = = = = = = = = = = = = = = = = = = = = = = = = = = = = = = = = = =
#
# <seq id> <alignment start> <alignment end> <envelope start> <envelope end> <hmm acc> <hmm name> <type> <hmm start> <hmm end> <hmm length> <bit score> <E-value> <significance> <clan>

ENSMUST00000000310.14     89    190     88    191 PF04191.16  PEMT              Family     2   104   105    115.2   1.9e-33   1 CL0115   
ENSMUST00000102692.10     89    190     88    191 PF04191.16  PEMT              Family     2   104   105    115.2   1.9e-33   1 CL0115   
ENSMUST00000102693.9     126    227    125    228 PF04191.16  PEMT              Family     2   104   105    114.6   2.9e-33   1 CL0115   
ENSMUST00000000317.13     59    128     58    128 PF02807.18  ATP-gua_PtransN   Domain     2    67    67     98.0   3.3e-28   1 No_clan  
ENSMUST00000000317.13    187    400    187    401 PF00217.22  ATP-gua_Ptrans    Domain     1   211   212    278.6     3e-83   1 CL0286   
ENSMUST00000078222.9      59    128     58    128 PF02807.18  ATP-gua_PtransN   Domain     2    67    67     98.0   3.3e-28   1 No_clan  
ENSMUST00000078222.9     187    400    187    401 PF00217.22  ATP-gua_Ptrans    Domain     1   211   212    278.6     3e-83   1 CL0286   
ENSMUST00000092887.11    222    308    220    308 PF00595.27  PDZ               Domain     3    82    82     36.2   6.2e-09   1 CL0466   
ENSMUST00000092887.11    408   1046    407   1056 PF00063.24  Myosin_head       Domain     2   587   677    333.6   2.3e-99   1 CL0023   
ENSMUST00000092887.11   1082   1169   1077   1169 PF00063.24  Myosin_head       Domain   594   677   677     41.0   8.2e-11   1 CL0023   
ENSMUST00000092887.11   1215   1672   1173   1677 PF01576.22  Myosin_tail_1    Coiled-coil   369   818  1081     66.3   1.4e-18   1 No_clan  
ENSMUST00000100795.4     222    308    220    308 PF00595.27  PDZ               Domain     3    82    82     39.3     7e-10   1 CL0466   
ENSMUST00000108375.9     222    308    220    308 PF00595.27  PDZ               Domain     3    82    82     36.2   6.2e-09   1 CL0466   
ENSMUST00000108375.9     408   1046    407   1056 PF00063.24  Myosin_head       Domain     2   587   677    333.6   2.3e-99   1 CL0023   
ENSMUST00000108375.9    1082   1169   1077   1169 PF00063.24  Myosin_head       Domain   594   677   677     41.0   8.3e-11   1 CL0023   
ENSMUST00000108375.9    1215   1673   1171   1681 PF01576.22  Myosin_tail_1    Coiled-coil   369   819  1081     65.2   3.1e-18   1 No_clan  
ENSMUST00000108376.9     222    308    220    308 PF00595.27  PDZ               Domain     3    82    82     36.2   6.1e-09   1 CL0466   
ENSMUST00000108376.9     408   1046    407   1056 PF00063.24  Myosin_head       Domain     2   587   677    333.7   2.2e-99   1 CL0023   
ENSMUST00000108376.9    1082   1169   1077   1169 PF00063.24  Myosin_head       Domain   594   677   677     41.0   8.1e-11   1 CL0023   
ENSMUST00000001148.11     47    108     47    109 PF00013.32  KH_1              Domain     1    65    66     60.1   1.5e-16   1 CL0007   
ENSMUST00000001148.11    131    194    131    195 PF00013.32  KH_1              Domain     1    64    66     67.0     1e-18   1 CL0007   
ENSMUST00000001148.11    295    358    295    359 PF00013.32  KH_1              Domain     1    65    66     65.8   2.4e-18   1 CL0007   
ENSMUST00000105411.9      47    108     47    109 PF00013.32  KH_1              Domain     1    65    66     60.1   1.5e-16   1 CL0007   
ENSMUST00000105411.9     131    194    131    195 PF00013.32  KH_1              Domain     1    64    66     67.0     1e-18   1 CL0007   
ENSMUST00000105411.9     294    357    294    358 PF00013.32  KH_1              Domain     1    65    66     65.8   2.4e-18   1 CL0007   
ENSMUST00000168465.9      47    108     47    109 PF00013.32  KH_1              Domain     1    65    66     60.1   1.5e-16   1 CL0007   
ENSMUST00000168465.9     131    194    131    195 PF00013.32  KH_1              Domain     1    64    66     67.0     1e-18   1 CL0007   
ENSMUST00000168465.9     295    358    295    359 PF00013.32  KH_1              Domain     1    65    66     65.8   2.4e-18   1 CL0007   
ENSMUST00000001155.11     20     89     20     89 PF02196.18  RBD               Domain     1    69    69     78.0     4e-22   1 CL0072   
ENSMUST00000001155.11     99    145     99    147 PF00130.25  C1_1              Domain     1    51    53     40.2   2.4e-10   1 CL0006   
ENSMUST00000001155.11    309    563    308    565 PF07714.20  PK_Tyr_Ser-Thr    Domain     2   257   259    204.8   1.5e-60   1 CL0016   
ENSMUST00000120356.8      20     89     20     89 PF02196.18  RBD               Domain     1    69    69     80.8   5.4e-23   1 CL0072   
ENSMUST00000120356.8      99    145     99    147 PF00130.25  C1_1              Domain     1    51    53     42.7   4.1e-11   1 CL0006   
ENSMUST00000122312.8      20     89     20     89 PF02196.18  RBD               Domain     1    69    69     80.8   5.4e-23   1 CL0072   
ENSMUST00000122312.8      99    145     99    147 PF00130.25  C1_1              Domain     1    51    53     42.7   4.1e-11   1 CL0006   
ENSMUST00000136451.8      57    126     57    126 PF02196.18  RBD               Domain     1    69    69     78.8   2.4e-22   1 CL0072   
ENSMUST00000136451.8     136    182    136    184 PF00130.25  C1_1              Domain     1    51    53     40.9   1.5e-10   1 CL0006   
ENSMUST00000136451.8     346    395    345    402 PF07714.20  PK_Tyr_Ser-Thr    Domain     2    57   259     24.3   1.8e-05   1 CL0016   
ENSMUST00000065211.9      21    314     19    314 PF00291.28  PALP              Family     3   294   294    247.4   2.2e-73   1 CL0063   
ENSMUST00000108447.8      21    174     19    177 PF00291.28  PALP              Family     3   154   294    134.3   6.3e-39   1 CL0063   
ENSMUST00000108447.8     175    289    172    289 PF00291.28  PALP              Family   181   294   294     62.7   4.1e-17   1 CL0063   
ENSMUST00000108448.8      21    314     19    314 PF00291.28  PALP              Family     3   294   294    247.4   2.2e-73   1 CL0063   
ENSMUST00000121738.8      21    314     19    314 PF00291.28  PALP              Family     3   294   294    247.4   2.2e-73   1 CL0063   
ENSMUST00000127499.2       3    172      1    172 PF00291.28  PALP              Family   124   294   294    126.9   1.1e-36   1 CL0063   
ENSMUST00000128556.8      21    182     19    182 PF00291.28  PALP              Family     3   163   294    141.3   4.4e-41   1 CL0063   
ENSMUST00000135587.8      21    144     19    147 PF00291.28  PALP              Family     3   123   294    107.6   8.6e-31   1 CL0063   
ENSMUST00000147817.8      21    144     19    147 PF00291.28  PALP              Family     3   123   294    107.6   8.6e-31   1 CL0063   
ENSMUST00000001562.9      30     80     30     84 PF16322.8   Tub_N             Family     1    51   200     76.8     3e-21   1 No_clan  
ENSMUST00000001562.9      84    189     78    193 PF16322.8   Tub_N             Family    82   197   200     53.8   3.2e-14   1 No_clan  
ENSMUST00000001562.9     212    455    210    455 PF01167.21  Tub               Domain     3   263   263    306.9   1.5e-91   1 CL0395   
ENSMUST00000138313.6      30     81     30     84 PF16322.8   Tub_N             Family     1    52   200     78.6   8.4e-22   1 No_clan  
ENSMUST00000138313.6      84    145     78    149 PF16322.8   Tub_N             Family    82   145   200     28.8   1.6e-06   1 No_clan  
ENSMUST00000001792.12    214    296    213    297 PF00595.27  PDZ               Domain     2    81    82     64.0   1.3e-17   1 CL0466   
ENSMUST00000001792.12    353    418    352    432 PF00595.27  PDZ               Domain     2    66    82     25.7   1.2e-05   1 CL0466   
ENSMUST00000001792.12   1108   1180   1106   1187 PF00595.27  PDZ               Domain     3    75    82     44.5   1.6e-11   1 CL0466   
ENSMUST00000001792.12   1227   1306   1226   1307 PF00595.27  PDZ               Domain     2    81    82     25.2   1.7e-05   1 CL0466   
ENSMUST00000145610.8     410    482    408    489 PF00595.27  PDZ               Domain     3    75    82     45.9     6e-12   1 CL0466   
ENSMUST00000145610.8     529    608    528    609 PF00595.27  PDZ               Domain     2    81    82     26.6   6.2e-06   1 CL0466   
ENSMUST00000002128.14     54    213     54    218 PF00071.25  Ras               Domain     1   157   162    153.1   5.2e-45   1 CL0023   
ENSMUST00000056241.12     54    205     54    210 PF00071.25  Ras               Domain     1   157   162    133.1   7.3e-39   1 CL0023   
ENSMUST00000108322.9      54    213     54    218 PF00071.25  Ras               Domain     1   157   162    153.1   5.2e-45   1 CL0023   
ENSMUST00000050323.6       1     80      1     80 PF10579.12  Rapsyn_N          Repeat     1    80    80    118.7   8.7e-35   1 CL0020   
ENSMUST00000050323.6     139    319    136    362 PF17874.4   TPR_MalT          Repeat    17   194   336     34.6   1.4e-08   1 CL0020   
ENSMUST00000050323.6     363    403    361    403 PF13639.9   zf-RING_2         Domain     3    44    44     32.0   1.3e-07   1 CL0229   
ENSMUST00000111445.10      1     80      1     80 PF10579.12  Rapsyn_N          Repeat     1    80    80    119.1   6.7e-35   1 CL0020   
ENSMUST00000111445.10    209    238    208    239 PF13181.9   TPR_8             Repeat     4    33    34     12.8      0.12   1 CL0020   
ENSMUST00000111445.10    304    344    302    344 PF13639.9   zf-RING_2         Domain     3    44    44     32.3     1e-07   1 CL0229   
ENSMUST00000111446.10      1     80      1     80 PF10579.12  Rapsyn_N          Repeat     1    80    80    119.1   6.9e-35   1 CL0020   
ENSMUST00000111446.10    310    350    308    350 PF13639.9   zf-RING_2         Domain     3    44    44     32.3     1e-07   1 CL0229   
ENSMUST00000002176.13     19     87     18     89 PF00076.25  RRM_1             Domain     2    66    70     48.9   4.6e-13   1 CL0221   
ENSMUST00000002176.13    110    174    110    178 PF00076.25  RRM_1             Domain     1    64    70     55.0   5.8e-15   1 CL0221   
ENSMUST00000002176.13    401    470    401    471 PF00076.25  RRM_1             Domain     1    69    70     63.5   1.3e-17   1 CL0221   
ENSMUST00000100429.11     19     87     18     89 PF00076.25  RRM_1             Domain     2    66    70     48.9   4.6e-13   1 CL0221   
ENSMUST00000100429.11    110    174    110    178 PF00076.25  RRM_1             Domain     1    64    70     55.0   5.8e-15   1 CL0221   
ENSMUST00000100429.11    401    470    401    471 PF00076.25  RRM_1             Domain     1    69    70     63.5   1.3e-17   1 CL0221   
ENSMUST00000114924.10     61    129     60    131 PF00076.25  RRM_1             Domain     2    66    70     48.7   5.3e-13   1 CL0221   
ENSMUST00000114924.10    152    216    152    220 PF00076.25  RRM_1             Domain     1    64    70     54.8   6.5e-15   1 CL0221   
ENSMUST00000114924.10    443    512    443    513 PF00076.25  RRM_1             Domain     1    69    70     63.4   1.4e-17   1 CL0221   
ENSMUST00000137733.9      19     87     18     89 PF00076.25  RRM_1             Domain     2    66    70     52.4   3.9e-14   1 CL0221   
ENSMUST00000150624.9      19     87     18     89 PF00076.25  RRM_1             Domain     2    66    70     48.9   4.7e-13   1 CL0221   
ENSMUST00000150624.9     110    174    110    178 PF00076.25  RRM_1             Domain     1    64    70     55.0   5.9e-15   1 CL0221   
ENSMUST00000150624.9     405    474    405    475 PF00076.25  RRM_1             Domain     1    69    70     63.5   1.3e-17   1 CL0221   
ENSMUST00000170438.8      61    129     60    131 PF00076.25  RRM_1             Domain     2    66    70     48.9   4.6e-13   1 CL0221   
ENSMUST00000170438.8     152    216    152    220 PF00076.25  RRM_1             Domain     1    64    70     55.0   5.7e-15   1 CL0221   
ENSMUST00000170438.8     433    464    423    465 PF00076.25  RRM_1             Domain    38    69    70     23.6   3.6e-05   1 CL0221   
ENSMUST00000182851.8      43    111     42    113 PF00076.25  RRM_1             Domain     2    66    70     48.8     5e-13   1 CL0221   
ENSMUST00000182851.8     134    198    134    202 PF00076.25  RRM_1             Domain     1    64    70     54.9   6.2e-15   1 CL0221   
ENSMUST00000182851.8     425    494    425    495 PF00076.25  RRM_1             Domain     1    69    70     63.4   1.4e-17   1 CL0221   
ENSMUST00000002413.15      2    477      2    478 PF10268.12  Tmemb_161AB       Family     1   480   481    611.3  1.2e-183   1 No_clan  
ENSMUST00000133339.8       2     60      2     63 PF10268.12  Tmemb_161AB       Family     1    59   481     84.6   6.3e-24   1 No_clan  
ENSMUST00000147656.8       2    268      2    269 PF10268.12  Tmemb_161AB       Family     1   269   481    352.0    5e-105   1 No_clan  
ENSMUST00000149105.2       1     98      1     99 PF10268.12  Tmemb_161AB       Family     1   100   481    111.0   5.9e-32   1 No_clan  
ENSMUST00000149105.2      94    451     93    452 PF10268.12  Tmemb_161AB       Family   121   480   481    433.2  1.2e-129   1 No_clan  
ENSMUST00000182715.8       2     35      2     42 PF10268.12  Tmemb_161AB       Family     1    34   481     45.7   3.8e-12   1 No_clan  
ENSMUST00000182980.8       2    325      1    326 PF10268.12  Tmemb_161AB       Family   155   480   481    393.3  1.5e-117   1 No_clan  
ENSMUST00000131475.2      78    160     78    160 PF13772.9   AIG2_2            Family     1    83    83    100.3   6.6e-29   1 CL0278   
ENSMUST00000003029.14    297    444    296    445 PF04280.18  Tim44             Domain     2   146   147    141.3   2.7e-41   1 CL0051   
ENSMUST00000148672.2       2     66      1     67 PF04280.18  Tim44             Domain    84   146   147     62.1   6.6e-17   1 CL0051   
ENSMUST00000086869.6       9    311      9    311 PF04502.16  Saf4_Yju2         Family     1   331   331    342.6  3.3e-102   1 No_clan  
ENSMUST00000233226.2       9     42      9     42 PF04502.16  Saf4_Yju2         Family     1    36   331     55.9   5.4e-15   1 No_clan  
ENSMUST00000233661.2       9    217      9    245 PF04502.16  Saf4_Yju2         Family     1   214   331    324.4   1.2e-96   1 No_clan  
ENSMUST00000003669.8       6    109      1    110 PF00568.26  WH1               Domain     8   110   111    124.1   2.6e-36   1 CL0266   
ENSMUST00000110124.9       6    109      1    110 PF00568.26  WH1               Domain     8   110   111    124.1   2.6e-36   1 CL0266   
ENSMUST00000140212.8       6    109      1    110 PF00568.26  WH1               Domain     8   110   111    124.1   2.6e-36   1 CL0266   
ENSMUST00000143528.8       1     42      1     43 PF00568.26  WH1               Domain    71   110   111     42.2     7e-11   1 CL0266   
ENSMUST00000155711.2       6    103      1    108 PF00568.26  WH1               Domain     8   104   111    115.9   9.1e-34   1 CL0266   
ENSMUST00000003741.16     62    308     62    310 PF00069.28  Pkinase           Domain     1   262   264    203.4   4.4e-60   1 CL0016   
ENSMUST00000003741.16    333    370    331    370 PF00433.27  Pkinase_C         Family     3    46    46     26.8   6.7e-06   1 No_clan  
ENSMUST00000003741.16    407    664    407    664 PF00069.28  Pkinase           Domain     1   264   264    258.7   6.1e-77   1 CL0016   
ENSMUST00000105894.11     62    320     62    321 PF00069.28  Pkinase           Domain     1   263   264    238.1   1.2e-70   1 CL0016   
ENSMUST00000105894.11    344    381    342    381 PF00433.27  Pkinase_C         Family     3    46    46     26.8   6.8e-06   1 No_clan  
ENSMUST00000105894.11    418    675    418    675 PF00069.28  Pkinase           Domain     1   264   264    258.6   6.3e-77   1 CL0016   
ENSMUST00000157067.9      63    321     63    322 PF00069.28  Pkinase           Domain     1   263   264    238.1   1.2e-70   1 CL0016   
ENSMUST00000157067.9     345    382    343    382 PF00433.27  Pkinase_C         Family     3    46    46     26.8   6.8e-06   1 No_clan  
ENSMUST00000157067.9     419    676    419    676 PF00069.28  Pkinase           Domain     1   264   264    258.6   6.3e-77   1 CL0016   
ENSMUST00000168974.9      46    304     46    305 PF00069.28  Pkinase           Domain     1   263   264    238.1   1.1e-70   1 CL0016   
ENSMUST00000168974.9     328    365    326    365 PF00433.27  Pkinase_C         Family     3    46    46     26.8   6.6e-06   1 No_clan  
ENSMUST00000168974.9     402    659    402    659 PF00069.28  Pkinase           Domain     1   264   264    258.7     6e-77   1 CL0016   
ENSMUST00000173989.8       2    185      1    209 PF00069.28  Pkinase           Domain    26   210   264    192.4   9.9e-57   1 CL0016   
ENSMUST00000174481.8       2    210      1    211 PF00069.28  Pkinase           Domain    48   263   264    205.8   8.4e-61   1 CL0016   
ENSMUST00000174481.8     234    271    232    271 PF00433.27  Pkinase_C         Family     3    46    46     27.1   5.6e-06   1 No_clan  
ENSMUST00000174481.8     308    565    308    565 PF00069.28  Pkinase           Domain     1   264   264    259.1   4.5e-77   1 CL0016   
ENSMUST00000003754.8      21     91     18     92 PF13499.9   EF-hand_7         Domain     4    69    71     39.2   7.8e-10   1 CL0220   
ENSMUST00000003754.8     112    178    110    180 PF13499.9   EF-hand_7         Domain     4    68    71     40.0   4.5e-10   1 CL0220   
ENSMUST00000003754.8     199    226    199    227 PF00036.35  EF-hand_1         Domain     1    28    29     26.8   2.5e-06   1 CL0220   
ENSMUST00000212297.2      21     91     18     92 PF13499.9   EF-hand_7         Domain     4    69    71     39.5   6.3e-10   1 CL0220   
ENSMUST00000212297.2     111    178    109    180 PF13499.9   EF-hand_7         Domain     3    68    71     40.4   3.3e-10   1 CL0220   
ENSMUST00000212297.2     199    226    199    227 PF00036.35  EF-hand_1         Domain     1    28    29     27.0   2.1e-06   1 CL0220   
ENSMUST00000003910.13     21    349     21    349 PF03265.18  DNase_II          Family     1   328   328    394.5  4.3e-118   1 CL0479   
ENSMUST00000109744.8      12    328      9    328 PF03265.18  DNase_II          Family    13   328   328    369.3    2e-110   1 CL0479   
ENSMUST00000128400.2      21    349     21    349 PF03265.18  DNase_II          Family     1   328   328    394.5  4.3e-118   1 CL0479   
ENSMUST00000155942.8      21     90     21     93 PF03265.18  DNase_II          Family     1    70   328     65.9   3.9e-18   1 CL0479   
ENSMUST00000003964.17     31    662     31    663 PF05693.16  Glycogen_syn      Family     1   637   638   1210.9         0   1 CL0113   
ENSMUST00000209230.2       1     82      1     83 PF05693.16  Glycogen_syn      Family   491   572   638    158.5   2.8e-46   1 CL0113   
ENSMUST00000095767.11      1    333      1    333 PF04621.16  ETS_PEA3_N        Family     1   348   348    476.9  6.8e-143   1 No_clan  
ENSMUST00000095767.11    336    415    336    415 PF00178.25  Ets               Domain     1    81    81    116.9     4e-34   1 CL0123   
ENSMUST00000159334.8      21    293     16    293 PF04621.16  ETS_PEA3_N        Family    62   348   348    358.4  7.4e-107   1 No_clan  
ENSMUST00000159334.8     296    375    296    375 PF00178.25  Ets               Domain     1    81    81    117.1   3.5e-34   1 CL0123   
ENSMUST00000162730.10      3    202      1    202 PF04621.16  ETS_PEA3_N        Family   131   348   348    240.5     5e-71   1 No_clan  
ENSMUST00000162730.10    205    284    205    284 PF00178.25  Ets               Domain     1    81    81    117.6   2.4e-34   1 CL0123   
ENSMUST00000004316.15     23     54     22     54 PF02199.18  SapA              Family     2    33    33     48.3   8.4e-13   1 No_clan  
ENSMUST00000004316.15     62     96     61     98 PF05184.18  SapB_1            Domain     2    36    38     49.6   3.1e-13   1 CL0707   
ENSMUST00000004316.15    105    138    104    138 PF03489.20  SapB_2            Family     2    34    34     40.7   2.1e-10   1 CL0707   
ENSMUST00000004316.15    238    272    238    272 PF03489.20  SapB_2            Family     1    34    34     34.1   2.5e-08   1 CL0707   
ENSMUST00000004316.15    315    351    314    351 PF05184.18  SapB_1            Domain     2    38    38     31.2   1.8e-07   1 CL0707   
ENSMUST00000004316.15    357    389    356    389 PF03489.20  SapB_2            Family     2    34    34     28.2   1.8e-06   1 CL0707   
ENSMUST00000004316.15    440    476    439    476 PF05184.18  SapB_1            Domain     2    38    38     44.5   1.2e-11   1 CL0707   
ENSMUST00000004316.15    481    514    481    514 PF03489.20  SapB_2            Family     1    34    34     36.9   3.3e-09   1 CL0707   
ENSMUST00000004316.15    524    556    524    556 PF02199.18  SapA              Family     1    33    33     64.8   5.9e-18   1 No_clan  
ENSMUST00000105465.8      23     54     22     54 PF02199.18  SapA              Family     2    33    33     48.3   8.4e-13   1 No_clan  
ENSMUST00000105465.8      62     96     61     98 PF05184.18  SapB_1            Domain     2    36    38     49.6   3.1e-13   1 CL0707   
ENSMUST00000105465.8     105    138    104    138 PF03489.20  SapB_2            Family     2    34    34     40.7   2.1e-10   1 CL0707   
ENSMUST00000105465.8     238    270    238    270 PF03489.20  SapB_2            Family     1    34    34     33.2   4.8e-08   1 CL0707   
ENSMUST00000105465.8     313    349    312    349 PF05184.18  SapB_1            Domain     2    38    38     31.2   1.8e-07   1 CL0707   
ENSMUST00000105465.8     355    387    354    387 PF03489.20  SapB_2            Family     2    34    34     28.2   1.8e-06   1 CL0707   
ENSMUST00000105465.8     438    474    437    474 PF05184.18  SapB_1            Domain     2    38    38     44.5   1.2e-11   1 CL0707   
ENSMUST00000105465.8     479    512    479    512 PF03489.20  SapB_2            Family     1    34    34     36.9   3.3e-09   1 CL0707   
ENSMUST00000105465.8     522    554    522    554 PF02199.18  SapA              Family     1    33    33     64.8   5.8e-18   1 No_clan  
ENSMUST00000165878.2      20     51     19     51 PF02199.18  SapA              Family     2    33    33     48.3   8.3e-13   1 No_clan  
ENSMUST00000165878.2      59     93     58     95 PF05184.18  SapB_1            Domain     2    36    38     49.6     3e-13   1 CL0707   
ENSMUST00000165878.2     102    135    101    135 PF03489.20  SapB_2            Family     2    34    34     40.7   2.1e-10   1 CL0707   
ENSMUST00000165878.2     235    267    235    267 PF03489.20  SapB_2            Family     1    34    34     33.2   4.8e-08   1 CL0707   
ENSMUST00000165878.2     310    346    309    346 PF05184.18  SapB_1            Domain     2    38    38     31.2   1.8e-07   1 CL0707   
ENSMUST00000165878.2     352    384    351    384 PF03489.20  SapB_2            Family     2    34    34     28.2   1.7e-06   1 CL0707   
ENSMUST00000165878.2     435    471    434    471 PF05184.18  SapB_1            Domain     2    38    38     44.5   1.2e-11   1 CL0707   
ENSMUST00000165878.2     476    509    476    509 PF03489.20  SapB_2            Family     1    34    34     37.0   3.2e-09   1 CL0707   
ENSMUST00000165878.2     519    551    519    551 PF02199.18  SapA              Family     1    33    33     64.8   5.8e-18   1 No_clan  
ENSMUST00000177779.8      23     54     22     54 PF02199.18  SapA              Family     2    33    33     48.3   8.4e-13   1 No_clan  
ENSMUST00000177779.8      62     96     61     98 PF05184.18  SapB_1            Domain     2    36    38     49.6   3.1e-13   1 CL0707   
ENSMUST00000177779.8     105    138    104    138 PF03489.20  SapB_2            Family     2    34    34     40.7   2.1e-10   1 CL0707   
ENSMUST00000177779.8     238    273    238    273 PF03489.20  SapB_2            Family     1    34    34     31.3     2e-07   1 CL0707   
ENSMUST00000177779.8     316    352    315    352 PF05184.18  SapB_1            Domain     2    38    38     31.2   1.8e-07   1 CL0707   
ENSMUST00000177779.8     358    390    357    390 PF03489.20  SapB_2            Family     2    34    34     28.2   1.8e-06   1 CL0707   
ENSMUST00000177779.8     441    477    440    477 PF05184.18  SapB_1            Domain     2    38    38     44.5   1.2e-11   1 CL0707   
ENSMUST00000177779.8     482    515    482    515 PF03489.20  SapB_2            Family     1    34    34     36.9   3.3e-09   1 CL0707   
ENSMUST00000177779.8     525    557    525    557 PF02199.18  SapA              Family     1    33    33     64.8   5.9e-18   1 No_clan  
ENSMUST00000179238.8      23     54     22     54 PF02199.18  SapA              Family     2    33    33     48.3   8.4e-13   1 No_clan  
ENSMUST00000179238.8      62     96     61     98 PF05184.18  SapB_1            Domain     2    36    38     49.6   3.1e-13   1 CL0707   
ENSMUST00000179238.8     105    138    104    138 PF03489.20  SapB_2            Family     2    34    34     40.7   2.1e-10   1 CL0707   
ENSMUST00000179238.8     238    273    238    273 PF03489.20  SapB_2            Family     1    34    34     30.7     3e-07   1 CL0707   
ENSMUST00000179238.8     316    352    315    352 PF05184.18  SapB_1            Domain     2    38    38     31.2   1.8e-07   1 CL0707   
ENSMUST00000179238.8     358    390    357    390 PF03489.20  SapB_2            Family     2    34    34     28.2   1.8e-06   1 CL0707   
ENSMUST00000179238.8     441    477    440    477 PF05184.18  SapB_1            Domain     2    38    38     44.5   1.2e-11   1 CL0707   
ENSMUST00000179238.8     482    515    482    515 PF03489.20  SapB_2            Family     1    34    34     36.9   3.3e-09   1 CL0707   
ENSMUST00000179238.8     525    557    525    557 PF02199.18  SapA              Family     1    33    33     64.8   5.9e-18   1 No_clan  
ENSMUST00000004574.14     25     87     25     87 PF00226.34  DnaJ              Domain     1    63    63     98.4   2.1e-28   1 CL0392   
ENSMUST00000004574.14    135    327    134    327 PF01556.21  DnaJ_C            Domain     2   149   149    121.2   4.2e-35   1 No_clan  
ENSMUST00000133013.2       3     96      1     96 PF01556.21  DnaJ_C            Domain    60   149   149     79.7   2.5e-22   1 No_clan  
ENSMUST00000178320.2      25     87     25     87 PF00226.34  DnaJ              Domain     1    63    63     98.4   2.1e-28   1 CL0392   
ENSMUST00000178320.2     135    327    134    327 PF01556.21  DnaJ_C            Domain     2   149   149    121.2   4.2e-35   1 No_clan  
ENSMUST00000093813.12   1088   1243   1087   1246 PF00621.23  RhoGEF            Domain     2   177   183     32.7   8.5e-08   1 No_clan  
ENSMUST00000160708.8      29    579     29    579 PF00995.26  Sec1              Family     1   577   577    409.8  3.3e-122   1 No_clan  
ENSMUST00000161629.8       6    114      2    114 PF00995.26  Sec1              Family   465   577   577     62.3     6e-17   1 No_clan  
ENSMUST00000162832.2      23    117     16    117 PF00995.26  Sec1              Family   479   577   577     48.7   7.7e-13   1 No_clan  
ENSMUST00000004749.7      27     47     27     47 PF02188.20  GoLoco             Motif     1    21    22     37.2   1.6e-09   1 No_clan  
ENSMUST00000133459.8       8     29      8     29 PF02188.20  GoLoco             Motif     1    22    22     36.7   2.3e-09   1 No_clan  
ENSMUST00000133459.8      48     68     48     68 PF02188.20  GoLoco             Motif     1    21    22     36.7   2.2e-09   1 No_clan  
ENSMUST00000136105.8      24     45     24     45 PF02188.20  GoLoco             Motif     1    22    22     36.4   2.8e-09   1 No_clan  
ENSMUST00000136105.8      64     84     64     84 PF02188.20  GoLoco             Motif     1    21    22     36.5   2.6e-09   1 No_clan  
ENSMUST00000142431.8      27     47     27     47 PF02188.20  GoLoco             Motif     1    21    22     37.2   1.6e-09   1 No_clan  
ENSMUST00000145855.8      78     98     78     98 PF02188.20  GoLoco             Motif     1    21    22     36.6   2.4e-09   1 No_clan  
ENSMUST00000046856.14     60    128     60    129 PF00017.27  SH2               Domain     2    75    77     45.3   7.5e-12   1 CL0541   
ENSMUST00000046856.14    215    266    215    267 PF00130.25  C1_1              Domain     1    52    53     58.2     6e-16   1 CL0006   
ENSMUST00000046856.14    291    439    291    440 PF00620.30  RhoGAP            Domain     1   148   149    164.9   1.1e-48   1 CL0409   
ENSMUST00000067741.10     79    130     79    131 PF00130.25  C1_1              Domain     1    52    53     58.9   3.7e-16   1 CL0006   
ENSMUST00000067741.10    155    303    155    304 PF00620.30  RhoGAP            Domain     1   148   149    166.0   5.3e-49   1 CL0409   
ENSMUST00000114402.9      24     75     24     76 PF00130.25  C1_1              Domain     1    52    53     59.8   1.9e-16   1 CL0006   
ENSMUST00000114402.9     100    224    100    225 PF00620.30  RhoGAP            Domain     1   124   149    125.0   2.2e-36   1 CL0409   
ENSMUST00000114403.8      60    128     60    129 PF00017.27  SH2               Domain     2    75    77     47.4   1.6e-12   1 CL0541   
ENSMUST00000203941.3      79    110     79    111 PF00130.25  C1_1              Domain     1    32    53     30.7   2.2e-07   1 CL0006   
ENSMUST00000203941.3     138    199    136    200 PF00620.30  RhoGAP            Domain    87   148   149     72.1   4.7e-20   1 CL0409   
ENSMUST00000090971.11     42    153     39    154 PF07686.20  V-set             Domain     4   108   109     39.2   7.1e-10   1 CL0011   
ENSMUST00000090971.11    156    250    156    250 PF00193.20  Xlink             Domain     1    93    93    104.1   3.9e-30   1 CL0056   
ENSMUST00000090971.11    264    352    257    352 PF00193.20  Xlink             Domain     8    93    93     92.3   1.9e-26   1 CL0056   
ENSMUST00000090971.11    628    655    626    656 PF00008.30  EGF               Domain     3    31    32     27.6   2.9e-06   1 CL0001   
ENSMUST00000090971.11    682    785    681    786 PF00059.24  Lectin_C          Domain     2   108   109     71.3     1e-19   1 CL0056   
ENSMUST00000090971.11    791    847    791    847 PF00084.23  Sushi             Domain     1    56    56     22.9   9.5e-05   1 CL0001   
ENSMUST00000192274.6      42    153     39    154 PF07686.20  V-set             Domain     4   108   109     39.8   4.4e-10   1 CL0011   
ENSMUST00000192274.6     156    250    156    250 PF00193.20  Xlink             Domain     1    93    93    104.8   2.5e-30   1 CL0056   
ENSMUST00000192274.6     264    352    257    352 PF00193.20  Xlink             Domain     8    93    93     92.9   1.2e-26   1 CL0056   
ENSMUST00000005016.16    133    292    133    293 PF13679.9   Methyltransf_32   Domain     1   157   158    104.2   7.2e-30   1 CL0063   
ENSMUST00000159091.9     133    292    133    293 PF13679.9   Methyltransf_32   Domain     1   157   158    104.9   4.3e-30   1 CL0063   
ENSMUST00000160143.2     133    216    133    225 PF13679.9   Methyltransf_32   Domain     1    92   158     51.8   9.7e-14   1 CL0063   
ENSMUST00000161014.2      33     80      6     81 PF13679.9   Methyltransf_32   Domain   111   157   158     44.7   1.5e-11   1 CL0063   
ENSMUST00000168070.2       5    122      1    123 PF13679.9   Methyltransf_32   Domain    50   157   158     62.6   4.6e-17   1 CL0063   
ENSMUST00000105328.10     22     57     17     58 PF00018.31  SH3_1             Domain    11    45    48     28.6   8.3e-07   1 CL0010   
ENSMUST00000105328.10     80    154     80    154 PF00017.27  SH2               Domain     1    77    77     71.9   3.9e-20   1 CL0541   
ENSMUST00000105328.10    193    436    193    436 PF07714.20  PK_Tyr_Ser-Thr    Domain     1   259   259    294.1   8.6e-88   1 CL0016   
ENSMUST00000117488.8      62     97     57     98 PF00018.31  SH3_1             Domain    11    45    48     28.5   9.2e-07   1 CL0010   
ENSMUST00000117488.8     120    194    120    194 PF00017.27  SH2               Domain     1    77    77     71.7   4.4e-20   1 CL0541   
ENSMUST00000117488.8     233    476    233    476 PF07714.20  PK_Tyr_Ser-Thr    Domain     1   259   259    293.8   1.1e-87   1 CL0016   
ENSMUST00000119547.8      22     57     17     58 PF00018.31  SH3_1             Domain    11    45    48     28.6   8.3e-07   1 CL0010   
ENSMUST00000119547.8      80    154     80    154 PF00017.27  SH2               Domain     1    77    77     71.9   3.9e-20   1 CL0541   
ENSMUST00000119547.8     193    436    193    436 PF07714.20  PK_Tyr_Ser-Thr    Domain     1   259   259    294.1   8.6e-88   1 CL0016   
ENSMUST00000121205.8      23     58     18     59 PF00018.31  SH3_1             Domain    11    45    48     28.6   8.3e-07   1 CL0010   
ENSMUST00000121205.8      81    155     81    155 PF00017.27  SH2               Domain     1    77    77     71.9   3.9e-20   1 CL0541   
ENSMUST00000121205.8     194    437    194    437 PF07714.20  PK_Tyr_Ser-Thr    Domain     1   259   259    294.1   8.7e-88   1 CL0016   
ENSMUST00000126720.8      23     58     18     59 PF00018.31  SH3_1             Domain    11    45    48     30.1   2.9e-07   1 CL0010   
ENSMUST00000126720.8      81    155     81    155 PF00017.27  SH2               Domain     1    77    77     73.7   1.1e-20   1 CL0541   
ENSMUST00000128576.8      23     58     18     59 PF00018.31  SH3_1             Domain    11    45    48     30.8   1.7e-07   1 CL0010   
ENSMUST00000128576.8      81    153     81    154 PF00017.27  SH2               Domain     1    75    77     68.8   3.6e-19   1 CL0541   
ENSMUST00000150605.8      22     57     17     58 PF00018.31  SH3_1             Domain    11    45    48     30.2   2.7e-07   1 CL0010   
ENSMUST00000150605.8      80    152     80    153 PF00017.27  SH2               Domain     1    75    77     67.9   6.5e-19   1 CL0541   
ENSMUST00000092213.11    100    167     99    168 PF00105.21  zf-C4             Domain     2    69    70    107.9   2.8e-31   1 CL0167   
ENSMUST00000092213.11    367    560    365    561 PF00104.33  Hormone_recep     Domain     3   212   213    128.0   4.1e-37   1 No_clan  
ENSMUST00000099343.2     100    167     99    168 PF00105.21  zf-C4             Domain     2    69    70    107.9   2.8e-31   1 CL0167   
ENSMUST00000099343.2     367    560    365    561 PF00104.33  Hormone_recep     Domain     3   212   213    128.0   4.1e-37   1 No_clan  
ENSMUST00000105290.9     100    167     99    168 PF00105.21  zf-C4             Domain     2    69    70    107.9   2.8e-31   1 CL0167   
ENSMUST00000105290.9     367    560    365    561 PF00104.33  Hormone_recep     Domain     3   212   213    128.0   4.1e-37   1 No_clan  
ENSMUST00000090541.12     70    132     70    132 PF00137.24  ATP-synt_C        Family     1    60    60     40.8   2.3e-10   1 No_clan  
ENSMUST00000107684.2      70    132     70    132 PF00137.24  ATP-synt_C        Family     1    60    60     40.8   2.3e-10   1 No_clan  
ENSMUST00000006478.10      2    158      2    158 PF09767.12  DUF2053           Family     1   160   160    224.0   1.2e-66   1 No_clan  
ENSMUST00000207779.2       2     93      2    100 PF09767.12  DUF2053           Family     1    92   160    129.3   1.6e-37   1 No_clan  
ENSMUST00000209065.2       1    109      1    109 PF09767.12  DUF2053           Family    49   160   160    137.5   4.6e-40   1 No_clan  
ENSMUST00000007733.8      20    158     20    159 PF14973.9   TINF2_N           Family     1   147   148    137.6     4e-40   1 No_clan  
ENSMUST00000227842.2      20    158     20    159 PF14973.9   TINF2_N           Family     1   147   148    137.6   4.1e-40   1 No_clan  
ENSMUST00000079086.8      19    122     13    123 PF00568.26  WH1               Domain     8   110   111    119.2   8.3e-35   1 CL0266   
ENSMUST00000102752.10      4    106      1    107 PF00568.26  WH1               Domain     9   110   111    120.6   3.2e-35   1 CL0266   
ENSMUST00000109492.9       4    106      1    107 PF00568.26  WH1               Domain     9   110   111    120.2     4e-35   1 CL0266   
ENSMUST00000109493.9       4    106      1    107 PF00568.26  WH1               Domain     9   110   111    119.7   5.7e-35   1 CL0266   
ENSMUST00000109494.8       4    106      1    107 PF00568.26  WH1               Domain     9   110   111    120.4   3.5e-35   1 CL0266   
ENSMUST00000007800.8      26    101     20    109 PF04667.20  Endosulfine       Family     6    71    80     37.7   1.8e-09   1 No_clan  
ENSMUST00000164467.8      26    101     20    109 PF04667.20  Endosulfine       Family     6    71    80     37.7   1.8e-09   1 No_clan  
ENSMUST00000166549.2      10     85      5     93 PF04667.20  Endosulfine       Family     6    71    80     40.8   1.9e-10   1 No_clan  
ENSMUST00000168166.8      26    101     20    109 PF04667.20  Endosulfine       Family     6    71    80     37.7   1.8e-09   1 No_clan  
ENSMUST00000169492.8      59    134     54    142 PF04667.20  Endosulfine       Family     6    71    80     37.2   2.7e-09   1 No_clan  
ENSMUST00000170308.8      26    101     20    109 PF04667.20  Endosulfine       Family     6    71    80     37.7   1.8e-09   1 No_clan  
ENSMUST00000095220.4     170    201    163    201 PF00400.35  WD40              Repeat     8    38    38     13.8      0.09   1 CL0186   
ENSMUST00000095220.4     223    252    214    252 PF00400.35  WD40              Repeat     8    38    38     15.2     0.033   1 CL0186   
ENSMUST00000139721.8     170    201    163    201 PF00400.35  WD40              Repeat     8    38    38     14.8     0.045   1 CL0186   
ENSMUST00000139721.8     223    252    214    252 PF00400.35  WD40              Repeat     8    38    38     16.1     0.017   1 CL0186   
ENSMUST00000008826.14     12    165     12    166 PF00252.21  Ribosomal_L16     Domain     1   131   132    127.9   2.6e-37   1 No_clan  
ENSMUST00000074085.12     12    165     12    166 PF00252.21  Ribosomal_L16     Domain     1   131   132    127.9   2.6e-37   1 No_clan  
ENSMUST00000135690.2      12    110     12    124 PF00252.21  Ribosomal_L16     Domain     1    81   132     63.4   2.2e-17   1 No_clan  
ENSMUST00000009713.14     96    119     96    119 PF02755.18  RPEL             Disordered     1    24    24     28.9   6.7e-07   1 No_clan  
ENSMUST00000009713.14    141    162    140    163 PF02755.18  RPEL             Disordered     2    23    24     33.9   1.8e-08   1 No_clan  
ENSMUST00000009713.14    395    427    394    428 PF02037.30  SAP               Domain     2    34    35     44.6   9.3e-12   1 CL0306   
ENSMUST00000149359.2      85    108     85    108 PF02755.18  RPEL             Disordered     1    24    24     28.9   6.6e-07   1 No_clan  
ENSMUST00000149359.2     130    151    129    152 PF02755.18  RPEL             Disordered     2    23    24     33.9   1.8e-08   1 No_clan  
ENSMUST00000149359.2     384    416    383    417 PF02037.30  SAP               Domain     2    34    35     44.6   9.2e-12   1 CL0306   
ENSMUST00000010020.12     38    171     33    171 PF02936.17  COX4              Family     9   141   141    171.6   9.3e-51   1 No_clan  
ENSMUST00000109821.2      38    171     33    171 PF02936.17  COX4              Family     9   141   141    171.6   9.3e-51   1 No_clan  
ENSMUST00000112642.8     167    368    166    368 PF00566.21  RabGAP-TBC        Family     2   216   216    182.1   1.2e-53   1 No_clan  
ENSMUST00000078589.7       1     27      1     31 PF08583.13  Cmc1              Family     1    26    70     23.8   3.7e-05   1 CL0351   
ENSMUST00000128304.2       1     28      1     43 PF08583.13  Cmc1              Family     1    27    70     22.3   0.00011   1 CL0351   
ENSMUST00000131616.8       1     29      1     43 PF08583.13  Cmc1              Family     1    28    70     25.3   1.3e-05   1 CL0351   
ENSMUST00000148235.8       1     70      1     71 PF08583.13  Cmc1              Family     1    69    70     71.2     6e-20   1 CL0351   
ENSMUST00000015234.13     41    182     40    184 PF00061.26  Lipocalin         Domain     2   142   144    113.0   1.4e-32   1 CL0116   
ENSMUST00000114259.3      41    182     40    184 PF00061.26  Lipocalin         Domain     2   142   144    113.0   1.4e-32   1 CL0116   
ENSMUST00000137417.2       2    119      1    121 PF00061.26  Lipocalin         Domain    26   142   144     85.6   4.1e-24   1 CL0116   
ENSMUST00000021554.16     32    135     31    136 PF00307.34  CH                Domain     2   108   109     84.2   7.2e-24   1 CL0188   
ENSMUST00000021554.16    145    250    144    251 PF00307.34  CH                Domain     2   108   109     88.5   3.4e-25   1 CL0188   
ENSMUST00000021554.16    275    383    274    384 PF00435.24  Spectrin          Domain     2   104   105     54.1   1.9e-14   1 No_clan  
ENSMUST00000021554.16    394    498    394    499 PF00435.24  Spectrin          Domain     1   104   105     89.0   2.8e-25   1 No_clan  
ENSMUST00000021554.16    510    620    509    620 PF00435.24  Spectrin          Domain     2   105   105     64.4   1.2e-17   1 No_clan  
ENSMUST00000021554.16    631    732    630    733 PF00435.24  Spectrin          Domain     2   104   105     44.8   1.5e-11   1 No_clan  
ENSMUST00000021554.16    822    888    822    888 PF08726.13  EFhand_Ca_insen   Domain     1    70    70     94.6     3e-27   1 CL0220   
ENSMUST00000167327.2      32    135     31    136 PF00307.34  CH                Domain     2   108   109     84.2   7.1e-24   1 CL0188   
ENSMUST00000167327.2     145    250    144    251 PF00307.34  CH                Domain     2   108   109     88.5   3.4e-25   1 CL0188   
ENSMUST00000167327.2     275    383    274    384 PF00435.24  Spectrin          Domain     2   104   105     54.1   1.9e-14   1 No_clan  
ENSMUST00000167327.2     394    498    394    499 PF00435.24  Spectrin          Domain     1   104   105     89.0   2.8e-25   1 No_clan  
ENSMUST00000167327.2     510    620    509    620 PF00435.24  Spectrin          Domain     2   105   105     64.5   1.2e-17   1 No_clan  
ENSMUST00000167327.2     631    732    630    733 PF00435.24  Spectrin          Domain     2   104   105     44.8   1.5e-11   1 No_clan  
ENSMUST00000167327.2     817    883    817    883 PF08726.13  EFhand_Ca_insen   Domain     1    70    70     94.6     3e-27   1 CL0220   
ENSMUST00000081702.12     67    307     63    310 PF01963.20  TraB_PrgY_gumN    Family     5   251   263     99.7   2.7e-28   1 CL0572   
ENSMUST00000103038.8      14    161     13    161 PF13302.10  Acetyltransf_3    Domain     2   138   138     88.7   5.9e-25   1 CL0257   
ENSMUST00000103039.2      14    161     13    161 PF13302.10  Acetyltransf_3    Domain     2   138   138     88.7   5.9e-25   1 CL0257   
ENSMUST00000103040.11     14    161     13    161 PF13302.10  Acetyltransf_3    Domain     2   138   138     88.7   5.9e-25   1 CL0257   
ENSMUST00000103041.8      14    161     13    161 PF13302.10  Acetyltransf_3    Domain     2   138   138     88.7   5.9e-25   1 CL0257   
ENSMUST00000015797.11     31    117     31    118 PF03807.20  F420_oxidored     Family     1    95    96     60.9   1.6e-16   1 CL0063   
ENSMUST00000015797.11    259    404    258    405 PF01794.22  Ferric_reduct     Family     2   123   124     64.0   1.5e-17   1 CL0328   
ENSMUST00000115426.9      31    117     31    118 PF03807.20  F420_oxidored     Family     1    95    96     60.9   1.6e-16   1 CL0063   
ENSMUST00000115426.9     259    404    258    405 PF01794.22  Ferric_reduct     Family     2   123   124     64.0   1.5e-17   1 CL0328   
ENSMUST00000150238.2      31    117     31    118 PF03807.20  F420_oxidored     Family     1    95    96     61.7   8.8e-17   1 CL0063   
ENSMUST00000150238.2     259    331    258    346 PF01794.22  Ferric_reduct     Family     2    71   124     31.7   1.4e-07   1 CL0328   
ENSMUST00000164219.8      31    117     31    118 PF03807.20  F420_oxidored     Family     1    95    96     60.9   1.6e-16   1 CL0063   
ENSMUST00000164219.8     259    404    258    405 PF01794.22  Ferric_reduct     Family     2   123   124     64.0   1.5e-17   1 CL0328   
ENSMUST00000015800.16      6    612      6    612 PF00012.23  HSP70             Family     1   599   599    877.2  4.9e-264   1 CL0108   
ENSMUST00000085077.5      65    116     64    117 PF00010.29  HLH               Domain     2    53    54     53.5   1.9e-14   1 No_clan  
ENSMUST00000085077.5     140    243    137    244 PF00989.28  PAS               Domain     4   112   113     51.3   1.1e-13   1 CL0183   
ENSMUST00000085077.5     336    436    335    442 PF14598.9   PAS_11            Domain     3   106   113     70.7   1.1e-19   1 CL0183   
ENSMUST00000208232.2      54    105     53    106 PF00010.29  HLH               Domain     2    53    54     53.5   1.8e-14   1 No_clan  
ENSMUST00000208232.2     129    232    126    233 PF00989.28  PAS               Domain     4   112   113     51.4     1e-13   1 CL0183   
ENSMUST00000208232.2     325    425    324    431 PF14598.9   PAS_11            Domain     3   106   113     70.7   1.1e-19   1 CL0183   
ENSMUST00000209133.2      54    105     53    106 PF00010.29  HLH               Domain     2    53    54     53.5   1.8e-14   1 No_clan  
ENSMUST00000209133.2     129    232    126    233 PF00989.28  PAS               Domain     4   112   113     51.4     1e-13   1 CL0183   
ENSMUST00000209133.2     325    425    324    431 PF14598.9   PAS_11            Domain     3   106   113     70.7   1.1e-19   1 CL0183   
ENSMUST00000015877.14     17    282     17    282 PF01267.20  F-actin_cap_A     Family     1   265   265    348.0  3.8e-104   1 No_clan  
ENSMUST00000156701.8      17    144     17    163 PF01267.20  F-actin_cap_A     Family     1   128   265    142.6   1.7e-41   1 No_clan  
ENSMUST00000015891.6      23    546     23    546 PF00995.26  Sec1              Family     1   577   577    436.4  2.9e-130   1 No_clan  
ENSMUST00000016781.8       7    172      7    173 PF00071.25  Ras               Domain     1   161   162    123.8   5.3e-36   1 CL0023   
ENSMUST00000230844.2       8    149      2    150 PF00071.25  Ras               Domain    23   161   162    102.2   2.3e-29   1 CL0023   
ENSMUST00000078324.7      49     90     49     90 PF12052.11  VGCC_beta4Aa_N    Domain     1    41    41     79.1     2e-22   1 No_clan  
ENSMUST00000078324.7     217    397    217    397 PF00625.24  Guanylate_kin     Domain     1   182   182    159.0     1e-46   1 CL0023   
ENSMUST00000102760.10     16     57     16     57 PF12052.11  VGCC_beta4Aa_N    Domain     1    41    41     79.2   1.8e-22   1 No_clan  
ENSMUST00000102760.10    184    364    184    364 PF00625.24  Guanylate_kin     Domain     1   182   182    159.2   9.1e-47   1 CL0023   
ENSMUST00000102761.9       3     44      3     44 PF12052.11  VGCC_beta4Aa_N    Domain     1    41    41     79.2   1.8e-22   1 No_clan  
ENSMUST00000102761.9     171    351    171    351 PF00625.24  Guanylate_kin     Domain     1   182   182    159.3   8.6e-47   1 CL0023   
ENSMUST00000178799.8      49     90     49     90 PF12052.11  VGCC_beta4Aa_N    Domain     1    41    41     79.1     2e-22   1 No_clan  
ENSMUST00000178799.8     217    397    217    397 PF00625.24  Guanylate_kin     Domain     1   182   182    159.0     1e-46   1 CL0023   
ENSMUST00000109832.3      29    437     27    437 PF01603.23  B56               Repeat     3   413   413    626.9  1.7e-188   1 CL0020   
ENSMUST00000221715.2      29    437     27    437 PF01603.23  B56               Repeat     3   413   413    627.3  1.3e-188   1 CL0020   
ENSMUST00000108987.8      41    309     41    314 PF00735.21  Septin            Domain     1   276   281    328.9   2.6e-98   1 CL0023   
ENSMUST00000117061.8      41    309     41    314 PF00735.21  Septin            Domain     1   276   281    328.9   2.6e-98   1 CL0023   
ENSMUST00000120878.9      41    307     41    312 PF00735.21  Septin            Domain     1   276   281    317.3     9e-95   1 CL0023   
ENSMUST00000121334.8      41    309     41    314 PF00735.21  Septin            Domain     1   276   281    328.4   3.6e-98   1 CL0023   
ENSMUST00000169807.8      17     56     17     56 PF13923.9   zf-C3HC4_2        Domain     1    40    40     40.5     2e-10   1 CL0229   
ENSMUST00000169807.8     164    228    164    228 PF16207.8   RAWUL             Domain     1    73    73     70.3   1.6e-19   1 CL0072   
ENSMUST00000179765.8      17     56     17     56 PF13923.9   zf-C3HC4_2        Domain     1    40    40     40.5     2e-10   1 CL0229   
ENSMUST00000179765.8     164    228    164    228 PF16207.8   RAWUL             Domain     1    73    73     70.3   1.6e-19   1 CL0072   
ENSMUST00000019198.7      34     62     33     65 PF14852.9   Fis1_TPR_N        Repeat     2    30    33     55.8   2.9e-15   1 CL0020   
ENSMUST00000019198.7      71    123     71    123 PF14853.9   Fis1_TPR_C        Repeat     1    53    53     86.7   9.6e-25   1 CL0020   
ENSMUST00000111094.8      27     55     26     58 PF14852.9   Fis1_TPR_N        Repeat     2    30    33     55.9   2.6e-15   1 CL0020   
ENSMUST00000111094.8      64    116     64    116 PF14853.9   Fis1_TPR_C        Repeat     1    53    53     86.8   8.7e-25   1 CL0020   
ENSMUST00000098548.8      25    146     23    147 PF07686.20  V-set             Domain     3   108   109     58.4   7.3e-16   1 CL0011   
ENSMUST00000211945.2      25    146     23    147 PF07686.20  V-set             Domain     3   108   109     58.4   7.3e-16   1 CL0011   
ENSMUST00000019734.11     51    185     51    185 PF03188.19  Cytochrom_B561    Family     1   137   137    154.8   1.5e-45   1 CL0328   
ENSMUST00000150563.3      51     99     51     99 PF03188.19  Cytochrom_B561    Family     1    51   137     50.1   3.3e-13   1 CL0328   
ENSMUST00000019803.9      11    143     10    143 PF08315.15  cwf18             Family     2   139   139    137.2     6e-40   1 No_clan  
ENSMUST00000066028.13      9     76      9     77 PF02827.19  PKI               Family     1    68    69     99.7     9e-29   1 No_clan  
ENSMUST00000075992.12      9     76      9     77 PF02827.19  PKI               Family     1    68    69     99.7     9e-29   1 No_clan  
ENSMUST00000095668.10     41    108     41    109 PF02827.19  PKI               Family     1    68    69     98.2   2.8e-28   1 No_clan  
ENSMUST00000177473.8       9     76      9     77 PF02827.19  PKI               Family     1    68    69     99.7     9e-29   1 No_clan  
ENSMUST00000009789.15     24    155     24    155 PF08336.14  P4Ha_N            Family     1   135   135    140.6   3.1e-41   1 No_clan  
ENSMUST00000009789.15    415    518    415    518 PF13640.9   2OG-FeII_Oxy_3    Domain     1    96    96     57.6   1.9e-15   1 CL0029   
ENSMUST00000092512.11     24    154     24    155 PF08336.14  P4Ha_N            Family     1   134   135    140.3   3.8e-41   1 No_clan  
ENSMUST00000092512.11    335    438    335    438 PF13640.9   2OG-FeII_Oxy_3    Domain     1    96    96     58.0   1.4e-15   1 CL0029   
ENSMUST00000105466.3      24    155     24    155 PF08336.14  P4Ha_N            Family     1   135   135    140.6   3.1e-41   1 No_clan  
ENSMUST00000105466.3     415    518    415    518 PF13640.9   2OG-FeII_Oxy_3    Domain     1    96    96     57.6   1.9e-15   1 CL0029   
ENSMUST00000053748.16    215    277    215    278 PF09379.13  FERM_N            Domain     1    63    64     86.8   6.8e-25   1 CL0072   
ENSMUST00000053748.16    294    402    292    402 PF00373.21  FERM_M            Domain     3   116   116     68.0   9.5e-19   1 CL0632   
ENSMUST00000053748.16    406    495    406    496 PF09380.13  FERM_C            Domain     1    93    94     83.3   1.4e-23   1 CL0266   
ENSMUST00000053748.16    500    543    500    543 PF08736.14  FA                Family     1    44    44     66.8   1.3e-18   1 No_clan  
ENSMUST00000053748.16    613    653    613    659 PF04382.16  SAB               Family     1    42    50     65.0   5.4e-18   1 No_clan  
ENSMUST00000053748.16    875    981    875    981 PF05902.16  4_1_CTD           Domain     1   107   107    173.2   1.4e-51   1 No_clan  
ENSMUST00000092645.7     215    277    215    278 PF09379.13  FERM_N            Domain     1    63    64     86.8   6.8e-25   1 CL0072   
ENSMUST00000092645.7     294    402    292    402 PF00373.21  FERM_M            Domain     3   116   116     68.0   9.5e-19   1 CL0632   
ENSMUST00000092645.7     406    495    406    496 PF09380.13  FERM_C            Domain     1    93    94     83.3   1.4e-23   1 CL0266   
ENSMUST00000092645.7     500    543    500    543 PF08736.14  FA                Family     1    44    44     66.8   1.3e-18   1 No_clan  
ENSMUST00000092645.7     613    653    613    659 PF04382.16  SAB               Family     1    42    50     65.0   5.4e-18   1 No_clan  
ENSMUST00000092645.7     875    981    875    981 PF05902.16  4_1_CTD           Domain     1   107   107    173.2   1.4e-51   1 No_clan  
ENSMUST00000217929.2     215    277    215    278 PF09379.13  FERM_N            Domain     1    63    64     87.2   5.2e-25   1 CL0072   
ENSMUST00000217929.2     294    402    292    402 PF00373.21  FERM_M            Domain     3   116   116     68.5     7e-19   1 CL0632   
ENSMUST00000217929.2     406    495    406    496 PF09380.13  FERM_C            Domain     1    93    94     83.7     1e-23   1 CL0266   
ENSMUST00000217929.2     500    543    500    543 PF08736.14  FA                Family     1    44    44     67.2     1e-18   1 No_clan  
ENSMUST00000217929.2     698    787    675    787 PF05902.16  4_1_CTD           Domain    18   107   107    148.9   4.9e-44   1 No_clan  
ENSMUST00000220290.2      29     69     29     75 PF04382.16  SAB               Family     1    42    50     68.0     6e-19   1 No_clan  
ENSMUST00000220290.2     139    194    138    194 PF05902.16  4_1_CTD           Domain    52   107   107    102.2   1.7e-29   1 No_clan  
ENSMUST00000020165.14    172    395    172    406 PF00233.22  PDEase_I          Domain     1   230   238    252.8   3.7e-75   1 CL0237   
ENSMUST00000164195.2     224    428    224    434 PF00233.22  PDEase_I          Domain     1   211   238    226.2   4.7e-67   1 CL0237   
ENSMUST00000020273.16     62    179     62    179 PF18114.4   Suv3_N            Domain     1   116   116    161.4   8.5e-48   1 CL0123   
ENSMUST00000020273.16    357    474    352    475 PF00271.34  Helicase_C        Domain     6   110   111     41.6   1.4e-10   1 CL0023   
ENSMUST00000020273.16    558    598    556    598 PF18147.4   Suv3_C_1          Domain     3    43    43     63.5   1.3e-17   1 No_clan  
ENSMUST00000020273.16    625    671    625    672 PF12513.11  SUV3_C            Family     1    47    48     57.2   1.3e-15   1 No_clan  
ENSMUST00000035894.12    132    316    123    316 PF15256.9   SPATIAL           Family    17   201   201    206.7   4.8e-61   1 No_clan  
ENSMUST00000121297.8      82    186     82    192 PF15256.9   SPATIAL           Family     1   106   201    110.0     2e-31   1 No_clan  
ENSMUST00000122261.8      82    282     82    282 PF15256.9   SPATIAL           Family     1   201   201    251.2   1.1e-74   1 No_clan  
ENSMUST00000126831.2       1    155      1    155 PF15256.9   SPATIAL           Family     5   160   201    152.6   1.8e-44   1 No_clan  
ENSMUST00000148181.8       8     96      5    102 PF15256.9   SPATIAL           Family    17   106   201     68.2   1.3e-18   1 No_clan  
ENSMUST00000151886.8       1     61      1     66 PF15256.9   SPATIAL           Family    46   109   201     38.0   2.3e-09   1 No_clan  
ENSMUST00000063470.11    416    643    414    645 PF00102.30  Y_phosphatase     Domain     3   233   235    248.5   7.1e-74   1 CL0031   
ENSMUST00000105271.9     309    536    307    538 PF00102.30  Y_phosphatase     Domain     3   233   235    249.0   4.8e-74   1 CL0031   
ENSMUST00000148731.8     172    399    170    401 PF00102.30  Y_phosphatase     Domain     3   233   235    250.0   2.3e-74   1 CL0031   
ENSMUST00000155606.8     172    399    170    401 PF00102.30  Y_phosphatase     Domain     3   233   235    250.0   2.3e-74   1 CL0031   
ENSMUST00000118661.8     110    149    110    149 PF05920.14  Homeobox_KN       Family     1    40    40     72.9   1.6e-20   1 CL0123   
ENSMUST00000144988.8     108    192    108    192 PF16493.8   Meis_PKNOX_N      Family     1    86    86    153.4   1.6e-45   1 No_clan  
ENSMUST00000144988.8     290    329    290    329 PF05920.14  Homeobox_KN       Family     1    40    40     71.7   3.7e-20   1 CL0123   
ENSMUST00000177417.8     108    192    108    192 PF16493.8   Meis_PKNOX_N      Family     1    86    86    153.3   1.7e-45   1 No_clan  
ENSMUST00000177417.8     290    329    290    329 PF05920.14  Homeobox_KN       Family     1    40    40     71.6   3.9e-20   1 CL0123   
ENSMUST00000185131.8     108    192    108    192 PF16493.8   Meis_PKNOX_N      Family     1    86    86    152.9   2.3e-45   1 No_clan  
ENSMUST00000185131.8     290    329    290    329 PF05920.14  Homeobox_KN       Family     1    40    40     71.3     5e-20   1 CL0123   
ENSMUST00000032719.15     80    184     77    185 PF00307.34  CH                Domain     4   108   109     53.8     2e-14   1 CL0188   
ENSMUST00000032719.15   2033   2114   2033   2162 PF00004.32  AAA               Domain     1    72   132     22.7   0.00012   1 CL0023   
ENSMUST00000160159.3      21     83     20     93 PF00307.34  CH                Domain     2    64   109     35.9   7.1e-09   1 CL0188   
ENSMUST00000238286.2    1511   1592   1511   1641 PF00004.32  AAA               Domain     1    72   132     23.1   8.7e-05   1 CL0023   
ENSMUST00000239301.2      21    127     20    128 PF00307.34  CH                Domain     2   108   109     56.6   2.7e-15   1 CL0188   
ENSMUST00000239301.2    1976   2057   1976   2105 PF00004.32  AAA               Domain     1    72   132     22.7   0.00011   1 CL0023   
ENSMUST00000095310.3     108    222    107    223 PF00169.32  PH                Domain     2   104   105     40.6   3.1e-10   1 CL0266   
ENSMUST00000095310.3     368    647    364    650 PF01237.21  Oxysterol_BP      Family     2   271   376    284.8   9.4e-85   1 No_clan  
ENSMUST00000105275.9     150    264    149    265 PF00169.32  PH                Domain     2   104   105     40.5   3.3e-10   1 CL0266   
ENSMUST00000105275.9     410    689    406    692 PF01237.21  Oxysterol_BP      Family     2   271   376    284.6     1e-84   1 No_clan  
ENSMUST00000020524.15     91    285     91    285 PF12595.11  Rhomboid_SP       Family     1   189   189    339.3  5.4e-102   1 No_clan  
ENSMUST00000020524.15    651    789    648    792 PF01694.25  Rhomboid          Family     4   147   150     98.2   4.8e-28   1 CL0207   
ENSMUST00000143036.8      91    266     91    272 PF12595.11  Rhomboid_SP       Family     1   171   189    312.0   1.3e-93   1 No_clan  
ENSMUST00000146179.8      91    150     91    158 PF12595.11  Rhomboid_SP       Family     1    60   189    100.6   8.4e-29   1 No_clan  
ENSMUST00000020586.7     138    519     60    524 PF00083.27  Sugar_tr          Family    44   447   452     99.5   2.1e-28   1 CL0015   
ENSMUST00000054684.14     74    164     70    165 PF02225.25  PA                Family     5    91    92     32.8   5.8e-08   1 CL0364   
ENSMUST00000054684.14    263    305    262    305 PF13639.9   zf-RING_2         Domain     2    44    44     45.0   1.1e-11   1 CL0229   
ENSMUST00000102776.5      74    164     70    165 PF02225.25  PA                Family     5    91    92     32.6   6.8e-08   1 CL0364   
ENSMUST00000102776.5     263    305    262    305 PF13639.9   zf-RING_2         Domain     2    44    44     44.9   1.2e-11   1 CL0229   
ENSMUST00000238748.2      74    164     70    165 PF02225.25  PA                Family     5    91    92     32.6   6.8e-08   1 CL0364   
ENSMUST00000238748.2     263    305    262    305 PF13639.9   zf-RING_2         Domain     2    44    44     44.9   1.2e-11   1 CL0229   
ENSMUST00000020710.11      4    327      3    332 PF01122.22  Cobalamin_bind    Repeat     2   312   318    393.4  6.6e-118   1 CL0059   
ENSMUST00000020710.11    355    427    355    429 PF14478.9   DUF4430           Domain     1    71    73     26.1     1e-05   1 CL0072   
ENSMUST00000109988.2       4    327      3    332 PF01122.22  Cobalamin_bind    Repeat     2   312   318    393.4  6.6e-118   1 CL0059   
ENSMUST00000109988.2     355    427    355    429 PF14478.9   DUF4430           Domain     1    71    73     26.1     1e-05   1 CL0072   
ENSMUST00000109989.10      4    327      3    332 PF01122.22  Cobalamin_bind    Repeat     2   312   318    393.4  6.6e-118   1 CL0059   
ENSMUST00000109989.10    355    427    355    429 PF14478.9   DUF4430           Domain     1    71    73     26.1     1e-05   1 CL0072   
ENSMUST00000109990.8       4    327      3    332 PF01122.22  Cobalamin_bind    Repeat     2   312   318    393.4  6.6e-118   1 CL0059   
ENSMUST00000109990.8     355    427    355    429 PF14478.9   DUF4430           Domain     1    71    73     26.1     1e-05   1 CL0072   
ENSMUST00000109991.8       4    327      3    332 PF01122.22  Cobalamin_bind    Repeat     2   312   318    393.4  6.6e-118   1 CL0059   
ENSMUST00000109991.8     355    427    355    429 PF14478.9   DUF4430           Domain     1    71    73     26.1     1e-05   1 CL0072   
ENSMUST00000109992.8       4    327      3    332 PF01122.22  Cobalamin_bind    Repeat     2   312   318    393.4  6.6e-118   1 CL0059   
ENSMUST00000109992.8     355    427    355    429 PF14478.9   DUF4430           Domain     1    71    73     26.1     1e-05   1 CL0072   
ENSMUST00000109993.9       4    327      3    332 PF01122.22  Cobalamin_bind    Repeat     2   312   318    393.4  6.6e-118   1 CL0059   
ENSMUST00000109993.9     355    427    355    429 PF14478.9   DUF4430           Domain     1    71    73     26.1     1e-05   1 CL0072   
ENSMUST00000020920.10     33    103     33    103 PF00610.24  DEP               Domain     1    72    72     43.5   2.7e-11   1 CL0123   
ENSMUST00000020920.10    106    204    106    205 PF18148.4   RGS_DHEX          Domain     1    99   100    158.9     3e-47   1 No_clan  
ENSMUST00000020920.10    216    280    216    280 PF00631.25  G-gamma           Domain     1    69    69     41.9     8e-11   1 No_clan  
ENSMUST00000020920.10    300    413    299    413 PF00615.22  RGS               Domain     2   118   118    112.0   2.1e-32   1 CL0272   
ENSMUST00000103062.9       2     54      1     54 PF00631.25  G-gamma           Domain    13    69    69     33.7   2.9e-08   1 No_clan  
ENSMUST00000103062.9      74    187     73    187 PF00615.22  RGS               Domain     2   118   118    113.0   1.1e-32   1 CL0272   
ENSMUST00000106704.3      33    103     33    103 PF00610.24  DEP               Domain     1    72    72     45.9   4.8e-12   1 CL0123   
ENSMUST00000106704.3     106    204    106    205 PF18148.4   RGS_DHEX          Domain     1    99   100    161.7   4.2e-48   1 No_clan  
ENSMUST00000106706.8      33    103     33    103 PF00610.24  DEP               Domain     1    72    72     44.1   1.7e-11   1 CL0123   
ENSMUST00000106706.8     106    204    106    205 PF18148.4   RGS_DHEX          Domain     1    99   100    159.7   1.8e-47   1 No_clan  
ENSMUST00000106706.8     216    280    216    280 PF00631.25  G-gamma           Domain     1    69    69     42.5   5.1e-11   1 No_clan  
ENSMUST00000106706.8     300    413    299    413 PF00615.22  RGS               Domain     2   118   118    112.8   1.2e-32   1 CL0272   
ENSMUST00000122328.8      83    143     83    143 PF13855.9   LRR_8             Repeat     1    61    61     63.2   1.6e-17   1 CL0022   
ENSMUST00000122328.8     243    325    243    331 PF07679.19  I-set             Domain     1    84    90     67.0   1.2e-18   1 CL0011   
ENSMUST00000122328.8     339    425    339    426 PF07679.19  I-set             Domain     1    89    90     67.5   8.5e-19   1 CL0011   
ENSMUST00000122328.8     430    516    430    516 PF07679.19  I-set             Domain     1    90    90     78.4   3.4e-22   1 CL0011   
ENSMUST00000122328.8     522    608    522    608 PF07679.19  I-set             Domain     1    90    90     68.5   4.4e-19   1 CL0011   
ENSMUST00000122328.8     738   1286    738   1286 PF03098.18  An_peroxidase     Domain     1   529   529    633.2  3.6e-190   1 CL0617   
ENSMUST00000122328.8    1415   1466   1411   1466 PF00093.21  VWC               Domain     4    57    57     30.8   2.9e-07   1 CL0451   
ENSMUST00000155318.2      83    143     83    143 PF13855.9   LRR_8             Repeat     1    61    61     65.7   2.5e-18   1 CL0022   
ENSMUST00000155318.2     243    325    243    331 PF07679.19  I-set             Domain     1    84    90     69.8   1.6e-19   1 CL0011   
ENSMUST00000218620.2       7    555      7    555 PF03098.18  An_peroxidase     Domain     1   529   529    635.7    6e-191   1 CL0617   
ENSMUST00000218620.2     684    735    680    735 PF00093.21  VWC               Domain     4    57    57     31.9   1.3e-07   1 CL0451   
ENSMUST00000220271.2      63    145     63    151 PF07679.19  I-set             Domain     1    84    90     67.2   1.1e-18   1 CL0011   
ENSMUST00000220271.2     159    245    159    246 PF07679.19  I-set             Domain     1    89    90     67.8   7.2e-19   1 CL0011   
ENSMUST00000220271.2     250    336    250    336 PF07679.19  I-set             Domain     1    90    90     78.7   2.9e-22   1 CL0011   
ENSMUST00000220271.2     342    428    342    428 PF07679.19  I-set             Domain     1    90    90     68.7   3.7e-19   1 CL0011   
ENSMUST00000220271.2     558   1106    558   1106 PF03098.18  An_peroxidase     Domain     1   529   529    633.6  2.7e-190   1 CL0617   
ENSMUST00000220271.2    1235   1286   1231   1286 PF00093.21  VWC               Domain     4    57    57     31.0   2.5e-07   1 CL0451   
ENSMUST00000108140.10      7    177      6    178 PF00071.25  Ras               Domain     2   160   162     83.2   1.6e-23   1 CL0023   
ENSMUST00000164425.2       7    177      6    178 PF00071.25  Ras               Domain     2   160   162     83.2   1.6e-23   1 CL0023   
ENSMUST00000175848.8       7    113      6    120 PF00071.25  Ras               Domain     2   100   162     42.4   5.6e-11   1 CL0023   
ENSMUST00000021142.8       5     72      4     72 PF00690.29  Cation_ATPase_N   Domain     2    69    69     62.5   2.5e-17   1 No_clan  
ENSMUST00000021142.8     123    329    121    329 PF00122.23  E1-E2_ATPase      Family     3   181   181    180.9   1.7e-53   1 No_clan  
ENSMUST00000021142.8     347    714    345    715 PF00702.29  Hydrolase         Domain     3   209   210     72.1   8.4e-20   1 CL0137   
ENSMUST00000021142.8     784    987    784    987 PF00689.24  Cation_ATPase_C   Family     1   182   182    162.2   1.1e-47   1 No_clan  
ENSMUST00000108484.8       5     72      4     72 PF00690.29  Cation_ATPase_N   Domain     2    69    69     62.6   2.3e-17   1 No_clan  
ENSMUST00000108484.8     123    329    121    329 PF00122.23  E1-E2_ATPase      Family     3   181   181    181.1   1.6e-53   1 No_clan  
ENSMUST00000108484.8     418    528    418    528 PF13246.9   Cation_ATPase     Family     1    91    91     68.9   3.2e-19   1 CL0137   
ENSMUST00000108484.8     669    726    666    729 PF08282.15  Hydrolase_3       Domain   195   252   255     28.1   1.7e-06   1 CL0137   
ENSMUST00000108484.8     766    969    766    969 PF00689.24  Cation_ATPase_C   Family     1   182   182    162.3     1e-47   1 No_clan  
ENSMUST00000108485.9       5     72      4     72 PF00690.29  Cation_ATPase_N   Domain     2    69    69     62.5   2.4e-17   1 No_clan  
ENSMUST00000108485.9     123    329    121    329 PF00122.23  E1-E2_ATPase      Family     3   181   181    181.0   1.6e-53   1 No_clan  
ENSMUST00000108485.9     347    714    345    715 PF00702.29  Hydrolase         Domain     3   209   210     72.2   7.8e-20   1 CL0137   
ENSMUST00000108485.9     784    987    784    987 PF00689.24  Cation_ATPase_C   Family     1   182   182    162.3   1.1e-47   1 No_clan  
ENSMUST00000108486.8       5     72      4     72 PF00690.29  Cation_ATPase_N   Domain     2    69    69     62.5   2.4e-17   1 No_clan  
ENSMUST00000108486.8     123    329    121    329 PF00122.23  E1-E2_ATPase      Family     3   181   181    181.0   1.7e-53   1 No_clan  
ENSMUST00000108486.8     418    528    418    528 PF13246.9   Cation_ATPase     Family     1    91    91     68.8   3.4e-19   1 CL0137   
ENSMUST00000108486.8     669    726    666    729 PF08282.15  Hydrolase_3       Domain   195   252   255     28.1   1.8e-06   1 CL0137   
ENSMUST00000108486.8     766    969    766    969 PF00689.24  Cation_ATPase_C   Family     1   182   182    162.2   1.1e-47   1 No_clan  
ENSMUST00000163326.8       5     72      4     72 PF00690.29  Cation_ATPase_N   Domain     2    69    69     62.5   2.4e-17   1 No_clan  
ENSMUST00000163326.8     123    329    121    329 PF00122.23  E1-E2_ATPase      Family     3   181   181    181.0   1.7e-53   1 No_clan  
ENSMUST00000163326.8     347    714    345    715 PF00702.29  Hydrolase         Domain     3   209   210     72.1   8.1e-20   1 CL0137   
ENSMUST00000163326.8     784    987    784    987 PF00689.24  Cation_ATPase_C   Family     1   182   182    162.2   1.1e-47   1 No_clan  
ENSMUST00000127610.8      61    156     58    160 PF00651.34  BTB               Domain     4   105   111     58.1   9.6e-16   1 CL0033   
ENSMUST00000127610.8     267    306    263    309 PF13637.9   Ank_4             Repeat    13    52    55     26.1     1e-05   1 CL0465   
ENSMUST00000127610.8     325    364    323    365 PF00023.33  Ank               Repeat     4    32    33     21.4   0.00026   1 CL0465   
ENSMUST00000150172.8      61    152     58    160 PF00651.34  BTB               Domain     4   101   111     54.9     1e-14   1 CL0033   
ENSMUST00000155998.2      61    156     58    160 PF00651.34  BTB               Domain     4   105   111     56.1   4.1e-15   1 CL0033   
ENSMUST00000155998.2     268    305    265    309 PF13637.9   Ank_4             Repeat    14    51    55     24.0   4.7e-05   1 CL0465   
ENSMUST00000155998.2     325    364    323    365 PF00023.33  Ank               Repeat     4    32    33     19.7   0.00088   1 CL0465   
ENSMUST00000155998.2     442    520    431    521 PF12796.10  Ank_2             Repeat    15    82    83     28.8   1.5e-06   1 CL0465   
ENSMUST00000155998.2     544    575    542    575 PF00023.33  Ank               Repeat     3    33    33     19.0    0.0016   1 CL0465   
ENSMUST00000155998.2     598    683    593    685 PF12796.10  Ank_2             Repeat     6    81    83     32.9     8e-08   1 CL0465   
ENSMUST00000155998.2     729    834    729    834 PF12796.10  Ank_2             Repeat     1    83    83     55.3   8.2e-15   1 CL0465   
ENSMUST00000155998.2     910    999    910   1003 PF12796.10  Ank_2             Repeat     1    79    83     46.2   5.5e-12   1 CL0465   
ENSMUST00000155998.2    1108   1163   1103   1165 PF01363.24  FYVE              Domain    10    67    69     56.3   2.8e-15   1 CL0390   
ENSMUST00000021155.4      16    398     16    398 PF03148.17  Tektin            Family     1   383   383    489.0  8.8e-147   1 No_clan  
ENSMUST00000108502.8      16    398     16    398 PF03148.17  Tektin            Family     1   383   383    489.0  8.8e-147   1 No_clan  
ENSMUST00000108503.9      16    398     16    398 PF03148.17  Tektin            Family     1   383   383    489.0  8.8e-147   1 No_clan  
ENSMUST00000092959.11      4    143      4    143 PF03954.17  Lectin_N          Family     1   140   140    192.5     3e-57   1 No_clan  
ENSMUST00000092959.11    172    278    170    278 PF00059.24  Lectin_C          Domain     3   109   109     84.6     8e-24   1 CL0056   
ENSMUST00000108585.9       4    118      4    123 PF03954.17  Lectin_N          Family     1   115   140    147.1   3.1e-43   1 No_clan  
ENSMUST00000108585.9     143    249    141    249 PF00059.24  Lectin_C          Domain     3   109   109     84.9   6.2e-24   1 CL0056   
ENSMUST00000108588.9      32     64     30     64 PF10608.12  MAGUK_N_PEST      Domain    59    88    88     37.1   3.2e-09   1 No_clan  
ENSMUST00000108588.9      65    149     65    149 PF00595.27  PDZ               Domain     1    82    82     76.9   1.2e-21   1 CL0466   
ENSMUST00000108588.9     161    243    160    244 PF00595.27  PDZ               Domain     2    81    82     73.5   1.5e-20   1 CL0466   
ENSMUST00000108588.9     245    312    245    312 PF10600.12  PDZ_assoc         Domain     1    70    70     96.3   1.4e-27   1 No_clan  
ENSMUST00000108588.9     314    388    313    391 PF00595.27  PDZ               Domain     2    79    82     76.5   1.6e-21   1 CL0466   
ENSMUST00000108588.9     434    490    434    490 PF00018.31  SH3_1             Domain     1    48    48     32.5   5.3e-08   1 CL0010   
ENSMUST00000108588.9     534    710    533    711 PF00625.24  Guanylate_kin     Domain     2   181   182    229.0   3.6e-68   1 CL0023   
ENSMUST00000108589.10     75    107     73    107 PF10608.12  MAGUK_N_PEST      Domain    59    88    88     37.0   3.5e-09   1 No_clan  
ENSMUST00000108589.10    108    192    108    192 PF00595.27  PDZ               Domain     1    82    82     76.8   1.3e-21   1 CL0466   
ENSMUST00000108589.10    204    286    203    287 PF00595.27  PDZ               Domain     2    81    82     73.3   1.6e-20   1 CL0466   
ENSMUST00000108589.10    288    355    288    355 PF10600.12  PDZ_assoc         Domain     1    70    70     96.2   1.6e-27   1 No_clan  
ENSMUST00000108589.10    357    431    356    434 PF00595.27  PDZ               Domain     2    79    82     76.4   1.8e-21   1 CL0466   
ENSMUST00000108589.10    477    533    477    533 PF00018.31  SH3_1             Domain     1    48    48     32.4   5.7e-08   1 CL0010   
ENSMUST00000108589.10    577    753    576    754 PF00625.24  Guanylate_kin     Domain     2   181   182    228.8   3.9e-68   1 CL0023   
ENSMUST00000231221.2      32     61     29     61 PF10608.12  MAGUK_N_PEST      Domain    59    88    88     47.8   1.5e-12   1 No_clan  
ENSMUST00000231221.2      62    146     62    146 PF00595.27  PDZ               Domain     1    82    82     79.1   2.5e-22   1 CL0466   
ENSMUST00000231221.2     158    240    157    241 PF00595.27  PDZ               Domain     2    81    82     75.7     3e-21   1 CL0466   
ENSMUST00000231415.2      32     61     29     61 PF10608.12  MAGUK_N_PEST      Domain    59    88    88     46.1   5.2e-12   1 No_clan  
ENSMUST00000231415.2      62    146     62    146 PF00595.27  PDZ               Domain     1    82    82     76.9   1.2e-21   1 CL0466   
ENSMUST00000231415.2     158    240    157    241 PF00595.27  PDZ               Domain     2    81    82     73.5   1.5e-20   1 CL0466   
ENSMUST00000231415.2     242    309    242    309 PF10600.12  PDZ_assoc         Domain     1    70    70     96.3   1.4e-27   1 No_clan  
ENSMUST00000231415.2     311    385    310    388 PF00595.27  PDZ               Domain     2    79    82     76.5   1.6e-21   1 CL0466   
ENSMUST00000231415.2     431    487    431    487 PF00018.31  SH3_1             Domain     1    48    48     32.5   5.2e-08   1 CL0010   
ENSMUST00000231415.2     531    707    530    708 PF00625.24  Guanylate_kin     Domain     2   181   182    229.0   3.5e-68   1 CL0023   
ENSMUST00000021486.10     10     69      7     69 PF02953.18  zf-Tim10_DDP      Domain     5    64    64     58.4   4.3e-16   1 No_clan  
ENSMUST00000166120.9      10     69      7     69 PF02953.18  zf-Tim10_DDP      Domain     5    64    64     58.4   4.3e-16   1 No_clan  
ENSMUST00000221559.2      10     69      7     69 PF02953.18  zf-Tim10_DDP      Domain     5    64    64     58.4   4.3e-16   1 No_clan  
ENSMUST00000221815.2      10     45      7     46 PF02953.18  zf-Tim10_DDP      Domain     5    40    64     30.4   2.4e-07   1 No_clan  
ENSMUST00000221892.2      10     46      7     48 PF02953.18  zf-Tim10_DDP      Domain     5    41    64     30.6   2.1e-07   1 No_clan  
ENSMUST00000009099.13      4    164      4    164 PF01426.21  BAH               Domain     1   122   122    119.0   1.1e-34   1 No_clan  
ENSMUST00000009099.13    167    219    167    219 PF01448.27  ELM2              Family     1    53    53     50.2   3.7e-13   1 No_clan  
ENSMUST00000009099.13    287    331    285    331 PF00249.34  Myb_DNA-binding   Domain     3    46    46     26.6   5.6e-06   1 CL0123   
ENSMUST00000009099.13    393    429    393    430 PF00320.30  GATA              Domain     1    35    36     36.9   2.1e-09   1 CL0167   
ENSMUST00000009099.13    464    541    464    541 PF17226.5   MTA_R1            Domain     1    78    78    119.5   5.8e-35   1 No_clan  
ENSMUST00000009099.13    658    690    656    695 PF17226.5   MTA_R1            Domain     8    42    78     10.6      0.57   1 No_clan  
ENSMUST00000109723.8       4    164      4    164 PF01426.21  BAH               Domain     1   122   122    119.1     1e-34   1 No_clan  
ENSMUST00000109723.8     167    219    167    219 PF01448.27  ELM2              Family     1    53    53     50.2   3.6e-13   1 No_clan  
ENSMUST00000109723.8     287    331    285    331 PF00249.34  Myb_DNA-binding   Domain     3    46    46     26.6   5.4e-06   1 CL0123   
ENSMUST00000109723.8     393    429    393    430 PF00320.30  GATA              Domain     1    35    36     37.0   2.1e-09   1 CL0167   
ENSMUST00000109723.8     464    541    464    541 PF17226.5   MTA_R1            Domain     1    78    78    119.5   5.7e-35   1 No_clan  
ENSMUST00000109723.8     646    678    644    683 PF17226.5   MTA_R1            Domain     8    42    78     10.6      0.56   1 No_clan  
ENSMUST00000109726.8       4    147      4    147 PF01426.21  BAH               Domain     1   122   122    118.1   2.1e-34   1 No_clan  
ENSMUST00000109726.8     150    202    150    202 PF01448.27  ELM2              Family     1    53    53     50.2   3.6e-13   1 No_clan  
ENSMUST00000109726.8     270    314    268    314 PF00249.34  Myb_DNA-binding   Domain     3    46    46     26.6   5.4e-06   1 CL0123   
ENSMUST00000109726.8     376    412    376    413 PF00320.30  GATA              Domain     1    35    36     37.0     2e-09   1 CL0167   
ENSMUST00000109726.8     447    524    447    524 PF17226.5   MTA_R1            Domain     1    78    78    119.5   5.6e-35   1 No_clan  
ENSMUST00000109726.8     641    673    639    678 PF17226.5   MTA_R1            Domain     8    42    78     10.6      0.55   1 No_clan  
ENSMUST00000109727.9       4    164      4    164 PF01426.21  BAH               Domain     1   122   122    119.1     1e-34   1 No_clan  
ENSMUST00000109727.9     167    219    167    219 PF01448.27  ELM2              Family     1    53    53     50.2   3.6e-13   1 No_clan  
ENSMUST00000109727.9     287    331    285    331 PF00249.34  Myb_DNA-binding   Domain     3    46    46     26.6   5.4e-06   1 CL0123   
ENSMUST00000109727.9     393    429    393    430 PF00320.30  GATA              Domain     1    35    36     37.0   2.1e-09   1 CL0167   
ENSMUST00000109727.9     464    541    464    541 PF17226.5   MTA_R1            Domain     1    78    78    119.5   5.7e-35   1 No_clan  
ENSMUST00000109727.9     646    678    644    683 PF17226.5   MTA_R1            Domain     8    42    78     10.6      0.56   1 No_clan  
ENSMUST00000021572.11    147    185    146    185 PF00400.35  WD40              Repeat     2    38    38     16.0     0.018   1 CL0186   
ENSMUST00000021572.11    189    226    189    227 PF00400.35  WD40              Repeat     1    37    38     26.6   8.2e-06   1 CL0186   
ENSMUST00000021572.11    316    353    315    353 PF00400.35  WD40              Repeat     2    38    38     30.3   5.7e-07   1 CL0186   
ENSMUST00000021572.11    362    396    359    396 PF00400.35  WD40              Repeat     4    38    38     23.7   6.8e-05   1 CL0186   
ENSMUST00000054251.13    147    185    146    185 PF00400.35  WD40              Repeat     2    38    38     16.0     0.018   1 CL0186   
ENSMUST00000054251.13    189    226    189    227 PF00400.35  WD40              Repeat     1    37    38     26.6   8.2e-06   1 CL0186   
ENSMUST00000054251.13    316    353    315    353 PF00400.35  WD40              Repeat     2    38    38     30.3   5.7e-07   1 CL0186   
ENSMUST00000054251.13    362    396    359    396 PF00400.35  WD40              Repeat     4    38    38     23.7   6.8e-05   1 CL0186   
ENSMUST00000101234.9      43    113     43    113 PF00610.24  DEP               Domain     1    72    72     60.3   1.5e-16   1 CL0123   
ENSMUST00000101234.9     116    217    116    217 PF18148.4   RGS_DHEX          Domain     1   100   100    167.0   9.4e-50   1 No_clan  
ENSMUST00000101234.9     256    317    255    319 PF00631.25  G-gamma           Domain     2    67    69     48.0   9.9e-13   1 No_clan  
ENSMUST00000101234.9     336    450    336    450 PF00615.22  RGS               Domain     1   118   118    116.3   9.8e-34   1 CL0272   
ENSMUST00000161801.8      43    113     43    113 PF00610.24  DEP               Domain     1    72    72     60.8   1.1e-16   1 CL0123   
ENSMUST00000161801.8     116    217    116    217 PF18148.4   RGS_DHEX          Domain     1   100   100    167.5   6.4e-50   1 No_clan  
ENSMUST00000161801.8     256    317    255    321 PF00631.25  G-gamma           Domain     2    67    69     48.5     7e-13   1 No_clan  
ENSMUST00000185665.7      43    113     43    113 PF00610.24  DEP               Domain     1    72    72     60.2   1.7e-16   1 CL0123   
ENSMUST00000185665.7     116    217    116    217 PF18148.4   RGS_DHEX          Domain     1   100   100    166.8   1.1e-49   1 No_clan  
ENSMUST00000185665.7     256    317    255    319 PF00631.25  G-gamma           Domain     2    67    69     47.8   1.1e-12   1 No_clan  
ENSMUST00000185665.7     336    450    336    450 PF00615.22  RGS               Domain     1   118   118    116.1   1.1e-33   1 CL0272   
ENSMUST00000186458.7      43    113     43    113 PF00610.24  DEP               Domain     1    72    72     60.2   1.6e-16   1 CL0123   
ENSMUST00000186458.7     116    217    116    217 PF18148.4   RGS_DHEX          Domain     1   100   100    166.9     1e-49   1 No_clan  
ENSMUST00000186458.7     256    317    255    319 PF00631.25  G-gamma           Domain     2    67    69     47.9     1e-12   1 No_clan  
ENSMUST00000186458.7     336    450    336    450 PF00615.22  RGS               Domain     1   118   118    116.2     1e-33   1 CL0272   
ENSMUST00000200861.4      43    107     43    109 PF00610.24  DEP               Domain     1    65    72     55.6   4.3e-15   1 CL0123   
ENSMUST00000200911.4      43    113     43    113 PF00610.24  DEP               Domain     1    72    72     60.2   1.6e-16   1 CL0123   
ENSMUST00000200911.4     116    217    116    217 PF18148.4   RGS_DHEX          Domain     1   100   100    166.9     1e-49   1 No_clan  
ENSMUST00000200911.4     256    317    255    319 PF00631.25  G-gamma           Domain     2    67    69     47.9     1e-12   1 No_clan  
ENSMUST00000200911.4     336    450    336    450 PF00615.22  RGS               Domain     1   118   118    116.2     1e-33   1 CL0272   
ENSMUST00000201861.4      43     87     43     88 PF00610.24  DEP               Domain     1    45    72     41.1   1.5e-10   1 CL0123   
ENSMUST00000202210.4      43    113     43    113 PF00610.24  DEP               Domain     1    72    72     60.2   1.6e-16   1 CL0123   
ENSMUST00000202210.4     116    217    116    217 PF18148.4   RGS_DHEX          Domain     1   100   100    166.9     1e-49   1 No_clan  
ENSMUST00000202210.4     256    317    255    319 PF00631.25  G-gamma           Domain     2    67    69     47.9     1e-12   1 No_clan  
ENSMUST00000202210.4     336    450    336    450 PF00615.22  RGS               Domain     1   118   118    116.2     1e-33   1 CL0272   
ENSMUST00000040766.9      32    213     31    213 PF01105.27  EMP24_GP25L       Domain     2   182   182    161.9   1.6e-47   1 CL0521   
ENSMUST00000222529.2      16    109      5    109 PF01105.27  EMP24_GP25L       Domain    89   182   182    104.3   7.9e-30   1 CL0521   
ENSMUST00000109848.10     16     68     16     68 PF00458.23  WHEP-TRS          Domain     1    53    53     73.4   1.2e-20   1 CL0600   
ENSMUST00000109848.10    156    442    155    446 PF00579.28  tRNA-synt_1b      Family     2   288   293     75.5   4.8e-21   1 CL0039   
ENSMUST00000161410.8      16     68     16     68 PF00458.23  WHEP-TRS          Domain     1    53    53     73.4   1.2e-20   1 CL0600   
ENSMUST00000161410.8     156    442    155    446 PF00579.28  tRNA-synt_1b      Family     2   288   293     75.5   4.8e-21   1 CL0039   
ENSMUST00000072646.8     182    707    181    708 PF06046.16  Sec6              Family     2   575   576    361.0  1.1e-107   1 CL0295   
ENSMUST00000222126.2     182    351    181    352 PF06046.16  Sec6              Family     2   179   576     93.2   1.4e-26   1 CL0295   
ENSMUST00000222897.2     182    707    181    708 PF06046.16  Sec6              Family     2   575   576    361.0  1.1e-107   1 CL0295   
ENSMUST00000223050.2     182    707    181    708 PF06046.16  Sec6              Family     2   575   576    361.0  1.1e-107   1 CL0295   
ENSMUST00000021734.9      12     75      9     75 PF00631.25  G-gamma           Domain     4    69    69     63.5   1.4e-17   1 No_clan  
ENSMUST00000021797.9     145    248    133    251 PF00566.21  RabGAP-TBC        Family   104   213   216     34.6   1.5e-08   1 No_clan  
ENSMUST00000179852.9     145    248    133    251 PF00566.21  RabGAP-TBC        Family   104   213   216     34.6   1.5e-08   1 No_clan  
ENSMUST00000220787.2     145    228    133    241 PF00566.21  RabGAP-TBC        Family   104   192   216     28.1   1.6e-06   1 No_clan  
ENSMUST00000021824.8      28     99     28    101 PF00076.25  RRM_1             Domain     1    68    70     26.6   4.3e-06   1 CL0221   
ENSMUST00000221142.2      10     81     10     83 PF00076.25  RRM_1             Domain     1    68    70     26.6   4.2e-06   1 CL0221   
ENSMUST00000222197.2      28     99     28    101 PF00076.25  RRM_1             Domain     1    68    70     26.6   4.3e-06   1 CL0221   
ENSMUST00000223467.2      10     81     10     83 PF00076.25  RRM_1             Domain     1    68    70     26.6   4.2e-06   1 CL0221   
ENSMUST00000021857.13     76    198     69    208 PF01409.23  tRNA-synt_2d      Domain     9   132   246     63.7   1.9e-17   1 CL0040   
ENSMUST00000021857.13    242    343    223    343 PF01409.23  tRNA-synt_2d      Domain   141   246   246    103.6   1.2e-29   1 CL0040   
ENSMUST00000021857.13    358    450    358    450 PF03147.17  FDX-ACB           Domain     1    94    94     82.0   3.3e-23   1 No_clan  
ENSMUST00000099582.4      10    111      4    111 PF01409.23  tRNA-synt_2d      Domain   141   246   246    105.2     4e-30   1 CL0040   
ENSMUST00000099582.4     126    218    126    218 PF03147.17  FDX-ACB           Domain     1    94    94     84.0   8.1e-24   1 No_clan  
ENSMUST00000224241.2      76    198     69    208 PF01409.23  tRNA-synt_2d      Domain     9   132   246     63.7   1.9e-17   1 CL0040   
ENSMUST00000224241.2     242    343    223    343 PF01409.23  tRNA-synt_2d      Domain   141   246   246    103.6   1.2e-29   1 CL0040   
ENSMUST00000224241.2     358    450    358    450 PF03147.17  FDX-ACB           Domain     1    94    94     82.0   3.3e-23   1 No_clan  
ENSMUST00000224357.2      12    104     12    104 PF03147.17  FDX-ACB           Domain     1    94    94     87.0   9.4e-25   1 No_clan  
ENSMUST00000224611.2      76    198     69    208 PF01409.23  tRNA-synt_2d      Domain     9   132   246     63.7   1.9e-17   1 CL0040   
ENSMUST00000224611.2     242    343    223    343 PF01409.23  tRNA-synt_2d      Domain   141   246   246    103.6   1.2e-29   1 CL0040   
ENSMUST00000224611.2     358    450    358    450 PF03147.17  FDX-ACB           Domain     1    94    94     82.0   3.3e-23   1 No_clan  
ENSMUST00000021932.6      39    331     39    331 PF00001.24  7tm_1             Family     1   264   264    241.5   9.8e-72   1 CL0192   
ENSMUST00000221470.2      32    324     32    324 PF00001.24  7tm_1             Family     1   264   264    241.6   9.3e-72   1 CL0192   
ENSMUST00000021939.8       7    288      4    288 PF00069.28  Pkinase           Domain     4   264   264    219.9     4e-65   1 CL0016   
ENSMUST00000223121.2       7    188      4    188 PF00069.28  Pkinase           Domain     4   181   264    172.0   1.7e-50   1 CL0016   
ENSMUST00000046246.13      8     80      3     82 PF00595.27  PDZ               Domain     6    80    82     47.1   2.6e-12   1 CL0466   
ENSMUST00000046246.13    282    333    282    337 PF00412.25  LIM               Domain     1    54    58     49.3   4.6e-13   1 CL0167   
ENSMUST00000046246.13    341    396    341    396 PF00412.25  LIM               Domain     1    58    58     54.1   1.4e-14   1 CL0167   
ENSMUST00000046246.13    400    454    400    457 PF00412.25  LIM               Domain     1    55    58     47.3   1.9e-12   1 CL0167   
ENSMUST00000069929.13      7     80      3     82 PF00595.27  PDZ               Domain     5    80    82     49.4   4.9e-13   1 CL0466   
ENSMUST00000069968.13      7     80      3     82 PF00595.27  PDZ               Domain     5    80    82     48.9   7.1e-13   1 CL0466   
ENSMUST00000131306.8       7     80      3     82 PF00595.27  PDZ               Domain     5    80    82     48.9   6.9e-13   1 CL0466   
ENSMUST00000153230.8       7     80      3     82 PF00595.27  PDZ               Domain     5    80    82     49.3   5.1e-13   1 CL0466   
ENSMUST00000022007.8      77    168     77    168 PF15074.9   DUF4541           Family     1    92    92    130.9   2.2e-38   1 No_clan  
ENSMUST00000222604.2      77    168     77    168 PF15074.9   DUF4541           Family     1    92    92    130.9   2.2e-38   1 No_clan  
ENSMUST00000044083.9      13    275     13    275 PF00069.28  Pkinase           Domain     1   264   264    247.3   1.8e-73   1 CL0016   
ENSMUST00000044083.9     390    431    390    431 PF13637.9   Ank_4             Repeat    12    54    55     25.0   2.3e-05   1 CL0465   
ENSMUST00000044083.9     441    508    432    508 PF12796.10  Ank_2             Repeat    23    83    83     54.0     2e-14   1 CL0465   
ENSMUST00000044083.9     548    637    548    640 PF12796.10  Ank_2             Repeat     1    80    83     57.5   1.7e-15   1 CL0465   
ENSMUST00000044083.9    1310   1395   1310   1396 PF00531.25  Death             Domain     1    85    86     73.9   9.2e-21   1 CL0041   
ENSMUST00000077453.13     13    275     13    275 PF00069.28  Pkinase           Domain     1   264   264    247.3   1.8e-73   1 CL0016   
ENSMUST00000077453.13    390    431    390    431 PF13637.9   Ank_4             Repeat    12    54    55     25.0   2.3e-05   1 CL0465   
ENSMUST00000077453.13    441    508    432    508 PF12796.10  Ank_2             Repeat    23    83    83     54.0     2e-14   1 CL0465   
ENSMUST00000077453.13    548    637    548    640 PF12796.10  Ank_2             Repeat     1    80    83     57.5   1.7e-15   1 CL0465   
ENSMUST00000077453.13   1310   1395   1310   1396 PF00531.25  Death             Domain     1    85    86     73.9   9.2e-21   1 CL0041   
ENSMUST00000224340.2      13    275     13    275 PF00069.28  Pkinase           Domain     1   264   264    251.7   7.9e-75   1 CL0016   
ENSMUST00000226059.2      13    275     13    275 PF00069.28  Pkinase           Domain     1   264   264    247.3   1.8e-73   1 CL0016   
ENSMUST00000226059.2     390    431    390    431 PF13637.9   Ank_4             Repeat    12    54    55     25.0   2.3e-05   1 CL0465   
ENSMUST00000226059.2     441    508    432    508 PF12796.10  Ank_2             Repeat    23    83    83     54.0   2.1e-14   1 CL0465   
ENSMUST00000226059.2     548    637    548    640 PF12796.10  Ank_2             Repeat     1    80    83     57.5   1.7e-15   1 CL0465   
ENSMUST00000226059.2    1310   1395   1310   1396 PF00531.25  Death             Domain     1    85    86     73.9   9.3e-21   1 CL0041   
ENSMUST00000068603.8      45    155     41    158 PF00307.34  CH                Domain     5   106   109     58.0     1e-15   1 CL0188   
ENSMUST00000068603.8     692    710    691    711 PF00612.30  IQ                 Motif     2    20    21     20.8   0.00024   1 CL0220   
ENSMUST00000068603.8     722    740    721    741 PF00612.30  IQ                 Motif     2    20    21     18.2    0.0016   1 CL0220   
ENSMUST00000068603.8     938   1150    938   1150 PF00616.22  RasGAP            Family     1   208   208    197.3   2.7e-58   1 CL0409   
ENSMUST00000068603.8    1367   1498   1367   1499 PF03836.18  RasGAP_C          Family     1   135   136    124.6   3.2e-36   1 No_clan  
ENSMUST00000022212.9      81    331     79    331 PF00069.28  Pkinase           Domain     3   264   264    237.0   2.6e-70   1 CL0016   
ENSMUST00000022212.9     509    561    509    567 PF00659.21  POLO_box          Family     1    56    61     54.2   1.2e-14   1 CL0708   
ENSMUST00000022212.9     605    670    605    670 PF00659.21  POLO_box          Family     1    61    61     60.7   1.2e-16   1 CL0708   
ENSMUST00000159027.8      93    293     92    294 PF00149.31  Metallophos       Domain     2   204   205    130.8   9.8e-38   1 CL0163   
ENSMUST00000161445.8      93    293     92    294 PF00149.31  Metallophos       Domain     2   204   205    130.8   9.8e-38   1 CL0163   
ENSMUST00000161989.2      93    293     92    294 PF00149.31  Metallophos       Domain     2   204   205    131.0   8.7e-38   1 CL0163   
ENSMUST00000056997.15     83    152     74    153 PF00383.26  dCMP_cyt_deam_1   Domain    20    99   101     27.5   2.4e-06   1 CL0109   
ENSMUST00000056997.15    321    444    317    446 PF00383.26  dCMP_cyt_deam_1   Domain     5    99   101     36.0   5.2e-09   1 CL0109   
ENSMUST00000167100.9      83    152     74    153 PF00383.26  dCMP_cyt_deam_1   Domain    20    99   101     27.6   2.2e-06   1 CL0109   
ENSMUST00000167100.9     321    444    317    446 PF00383.26  dCMP_cyt_deam_1   Domain     5    99   101     36.2   4.7e-09   1 CL0109   
ENSMUST00000171683.3      83    152     74    153 PF00383.26  dCMP_cyt_deam_1   Domain    20    99   101     27.6   2.2e-06   1 CL0109   
ENSMUST00000171683.3     321    444    317    446 PF00383.26  dCMP_cyt_deam_1   Domain     5    99   101     36.2   4.7e-09   1 CL0109   
ENSMUST00000225103.2      83    152     74    153 PF00383.26  dCMP_cyt_deam_1   Domain    20    99   101     28.5   1.2e-06   1 CL0109   
ENSMUST00000225839.2      83    152     74    153 PF00383.26  dCMP_cyt_deam_1   Domain    20    99   101     27.5   2.4e-06   1 CL0109   
ENSMUST00000225839.2     321    444    317    446 PF00383.26  dCMP_cyt_deam_1   Domain     5    99   101     36.0   5.2e-09   1 CL0109   
ENSMUST00000022699.10     40    113     40    115 PF02351.19  GDNF              Domain     1    85    89     27.8   3.7e-06   1 No_clan  
ENSMUST00000022699.10    161    241    161    241 PF02351.19  GDNF              Domain     1    89    89     50.8   2.4e-13   1 No_clan  
ENSMUST00000022699.10    251    347    251    347 PF02351.19  GDNF              Domain     1    89    89     75.9   3.7e-21   1 No_clan  
ENSMUST00000227633.2       9     90      6     90 PF02351.19  GDNF              Domain    16    89    89     56.4   4.3e-15   1 No_clan  
ENSMUST00000075317.12    339    415    334    416 PF00595.27  PDZ               Domain     6    81    82     52.1   6.9e-14   1 CL0466   
ENSMUST00000075317.12    592    664    589    673 PF00595.27  PDZ               Domain     5    75    82     51.0   1.5e-13   1 CL0466   
ENSMUST00000075317.12    755    813    731    814 PF00595.27  PDZ               Domain    25    81    82     29.1     1e-06   1 CL0466   
ENSMUST00000075317.12   2583   2652   2581   2662 PF00595.27  PDZ               Domain     4    73    82     35.0   1.5e-08   1 CL0466   
ENSMUST00000075317.12   2713   2791   2709   2791 PF00595.27  PDZ               Domain     6    82    82     51.6   9.5e-14   1 CL0466   
ENSMUST00000191339.2      92    136     89    138 PF00595.27  PDZ               Domain     5    47    82     30.4   3.9e-07   1 CL0466   
ENSMUST00000022828.9       3    191      3    191 PF03665.16  UPF0172           Family     1   193   193    193.8   3.1e-57   1 CL0366   
ENSMUST00000173169.2       1     77      1     77 PF03665.16  UPF0172           Family   115   193   193     47.3   2.6e-12   1 CL0366   
ENSMUST00000090247.7      73    202     70    204 PF00650.23  CRAL_TRIO         Domain     4   154   156     23.5   4.1e-05   1 CL0512   
ENSMUST00000090247.7     341    444    340    446 PF00435.24  Spectrin          Domain     2   103   105     38.7   1.2e-09   1 No_clan  
ENSMUST00000090247.7     570    670    566    672 PF00435.24  Spectrin          Domain     5   103   105     35.9   8.9e-09   1 No_clan  
ENSMUST00000090247.7     909   1006    907   1011 PF00435.24  Spectrin          Domain     3    99   105     37.0   4.1e-09   1 No_clan  
ENSMUST00000090247.7    1140   1243   1138   1244 PF00435.24  Spectrin          Domain     3   104   105     38.2   1.7e-09   1 No_clan  
ENSMUST00000090247.7    1296   1463   1296   1468 PF00621.23  RhoGEF            Domain     1   181   183    120.1   1.4e-34   1 No_clan  
ENSMUST00000090247.7    1503   1590   1480   1591 PF00169.32  PH                Domain    17   104   105     30.4   4.8e-07   1 CL0266   
ENSMUST00000090247.7    1662   1713   1662   1713 PF00018.31  SH3_1             Domain     1    48    48     30.3   2.6e-07   1 CL0010   
ENSMUST00000090247.7    1715   1972   1715   1972 PF16609.8   SH3-RhoG_link    Disordered     1   261   261    514.8  5.2e-155   1 No_clan  
ENSMUST00000090247.7    1973   2143   1973   2143 PF00621.23  RhoGEF            Domain     1   183   183    139.7   1.3e-40   1 No_clan  
ENSMUST00000090247.7    2178   2270   2159   2271 PF00169.32  PH                Domain    16   104   105     26.8   6.1e-06   1 CL0266   
ENSMUST00000090247.7    2689   2780   2689   2780 PF07679.19  I-set             Domain     1    90    90     70.6   9.4e-20   1 CL0011   
ENSMUST00000090247.7    2800   3054   2800   3054 PF00069.28  Pkinase           Domain     1   264   264    196.4     6e-58   1 CL0016   
ENSMUST00000226644.2       2     99      1    100 PF00435.24  Spectrin          Domain     9   104   105     35.2   1.5e-08   1 No_clan  
ENSMUST00000226644.2     152    319    152    324 PF00621.23  RhoGEF            Domain     1   181   183    121.5     5e-35   1 No_clan  
